:020000040800F2
:10000000C0B0002021020008290200082B020008CD
:100010002D0200082F020008310200080000000035
:100020000000000000000000000000003302000893
:100030003502000800000000AF020008ED9F000834
:100040003B0200083B0200083B0200080D88000844
:100050003B0200083B0200083B0200083B0200088C
:100060003B0200083B0200083B0200083B0200087C
:100070003B0200083B0200083B0200083B0200086C
:100080003B0200083B0200083B0200083B0200085C
:100090006DAF00083B0200083B0200083B0200086D
:1000A0003B0200083B0200083B0200083B0200083C
:1000B0005DA00008E5A000083B0200083B02000824
:1000C0003B0200083B0200083B0200083B0200081C
:1000D0003B0200087DAC00083B0200083B02000820
:1000E0003B0200083B02000821AE00083B0200086A
:1000F0003B0200083B0200083B0200083B020008EC
:100100003B0200083B02000819A100083B0200085E
:100110003B0200083B0200083B0200083B020008CB
:100120003B0200083B0200083B0200083B020008BB
:1001300000F002F800F065F80AA090E8000C824494
:100140008344AAF10107DA4501D100F05AF8AFF271
:10015000090EBAE80F0013F0010F18BFFB1A43F0A5
:10016000010318471C7F01003C7F01000A444FF047
:10017000000C10F8013B13F0070408BF10F8014B06
:100180001D1108BF10F8015B641E05D010F8016B4B
:10019000641E01F8016BF9D113F0080F1EBF10F8AF
:1001A000014BAD1C0C1B09D16D1E58BF01F801CBD2
:1001B000FAD505E014F8016B01F8016B6D1EF9D555
:1001C0009142D6D37047000000230024002500266A
:1001D000103A28BF78C1FBD8520728BF30C148BFAA
:1001E0000B607047642900F0A181782900F0DA8162
:1001F000732900F0C683002070471FB51FBD10B5DE
:1002000010BD00F0E1FB1146FFF7F7FF10F0B2FD63
:1002100000F0FFFB03B4FFF7F2FF03BC0BF0F1FAB1
:100220000948804709480047FEE7FEE7FEE7FEE78A
:10023000FEE7FEE7FEE7FEE7FEE7FEE704480549C6
:10024000054A064B704700000DA000083101000868
:10025000C0AA0020C0B00020C0AC0020C0AC00206C
:10026000EFF3108072B6704780F310887047204C0F
:10027000204D25604FF0000484F309881E4C4FF098
:10028000010525701D4C4FF08055256062B6FEE7D4
:1002900030B41A4C4FF08055256030BC704730B4F4
:1002A000164C4FF08055256030BC704700BF72B6C9
:1002B000EFF3098028B1203880E8F00F1049096871
:1002C000086000B50F4880475DF804EB0E480F4901
:1002D0000A7802700A480E490A680260106890E8BD
:1002E000F00F203080F309884EF0040E62B670479C
:1002F00020ED00E00000FFFFDB00002004ED00E047
:10030000F4000020257C0008D8000020D90000203F
:10031000FC000020704753EA020C00F069802DE9D0
:10032000F04B4FF00006002B1FBFB3FA83F503FA22
:1003300005F424FA05F65E4012BF1643B2FA82F5C0
:1003400002FA05F4C5F120051EBF22FA05FC44EAB5
:100350000C04203556EA044C4FEA144418BF641CC0
:100360004FF000084FF00009904271EB030C39D3B5
:10037000002919BFB1FA81F701FA07F6B0FA80F740
:1003800000FA07F6C7F120071EBF20FA07FC46EA6D
:100390000C062037B6FBF4FCA7EB0507103F07F06F
:1003A0001F0BCBF120060CFA0BFB2CFA06F644BF10
:1003B000B3460026202FA4BF5E464FF0000B5BEA39
:1003C000060C08BF4FF0010B19EB0B09ABFB027CCD
:1003D00048EB0608C01B06FB02CC0BFB03CC71EB01
:1003E0000C01C1E70B46024641464846BDE8F08B8A
:1003F00013B54FF000004FF00001AFF30080BDE8EF
:100400001C40704710B54C1084EA530404D5404298
:10041000C1F1000138BF491E1B4204D55242C3F14D
:10042000000338BF5B1EFFF776FF14F0804F04D047
:100430004042C1F1000138BF491E14F0004F04D002
:100440005242C3F1000338BF5B1E10BD0FB4044914
:1004500010B503AA029800F099FA10BC5DF814FBDD
:10046000340000200FB41CB5074B06AA7B44694634
:100470000090059800F05BFA0020694600F06AFAE7
:100480001CBC5DF814FB0000E504000070B50446D8
:1004900085690068C10601D5302600E02026C00726
:1004A00007D070BDD4E9012130469047206A401C36
:1004B00020626D1EF6D570BD70B504468569007862
:1004C000C00707D170BDD4E9012120209047206AE0
:1004D000401C20626D1EF6D570BD70B50C460546F9
:1004E000012A05D02878800600D5EA69002302E0B9
:1004F000012305E05B1C934202D2E05C0028F9D1A5
:10050000A869E618C01AA861286A18442862284613
:10051000FFF7BCFF04E0D5E9012114F8010B904777
:10052000B442F8D32846FFF7C7FF70BD2DE9F0416C
:100530000646002410687529314616A510D0AFF381
:100540000080002802DA404213A507E031688A07DC
:1005500001D512A502E0490704D511A5012401E047
:10056000AFF3008000210A2206F1240709E0B0FB66
:10057000F2FCB0FBF2F302FB1C003030785418465A
:10058000491C0028F3D123462A463046BDE8F041F5
:1005900000F06FB9000000002D0000002B000000EB
:1005A0002000000070B504460D4621461068AFF3E8
:1005B00000802188090502D50F4A7A4402E00E4ADC
:1005C0007A440E32002104F1240305E000F00F0606
:1005D0000009965D5E54491C0028F7D1207800235D
:1005E000000704D5702D02D009B102231132204634
:1005F000BDE8704000F03DB9627001002DE9F05F88
:10060000894604464FF0000ADFF824B1FB44C0F8E5
:1006100020A02046E168884700287DD0252806D004
:10062000D4E901219047206A401C2062F1E70025AF
:100630005F462046E16888472028064607DB312EC2
:1006400005D2B81910F8200C08B10543F1E7A80746
:1006500001D525F00405C4F81CA00027C4F818A093
:100660002A2E09D030460BF0C5F838B304EB8708C2
:10067000303EC8F8186019E059F8041B204604EB16
:1006800087029161E1688847012F064618D1E06929
:10069000002820DA25F020051DE0D8F8180000EB2E
:1006A000800006EB40003038C8F818002046E168AA
:1006B000884706460BF09EF80028EED1012F0AD09D
:1006C0002E2E08D12046E16888477F1C0646022F5F
:1006D00045F02005C4DBA069002803DA404245F05C
:1006E0000105A061E80701D025F01005A6B1A6F12B
:1006F0004100192802D8203645F400654A463146A3
:10070000204625604D46FFF76DFD60B1012807D0FA
:10071000ED1D25F0070000E007E000F1080978E78B
:1007200005F1040975E730467AE7206ABDE8F09FD5
:100730003870010040EA0103024630B59B0710D132
:100740004FF0013400E008C208C91D1B9D4315EAA3
:10075000C41FF8D013F0FF0102F8011B0DD01B0AD3
:10076000F8E711F8013B002B02F8013B05D011F826
:10077000013B002B02F8013BF3D130BD10B5431C07
:1007800002E010F8011B71B18107FAD14FF001327C
:1007900002C88C1A8C4314EAC211F9D0C01A0A0696
:1007A00003D0C01E10BDC01A10BD0A0401D0801EA7
:1007B00010BD0902FCD0401E10BD421E12F8013FC0
:1007C000002BFBD111F8013B002B02F8013BF9D1C2
:1007D000704700004FF0013C50F8042B51F8043BE7
:1007E0009A4221D1A2EB0C03934313EACC1317D105
:1007F00050F8042B51F8043B9A4215D1A2EB0C039C
:10080000934313EACC130BD150F8042B51F8043B5B
:100810009A4209D1A2EB0C03934313EACC13DBD029
:100820004FF00000704700BFD01A01BAB1FA81F151
:1008300001F0180122FA01F0CB40C1F12001DBB236
:10084000C0B2C01A2CFA01F3D11A914311EAC311B4
:10085000E6D17047704770477047704710B500F099
:10086000A7F8006810BD10B5044600F0A1F80460B8
:1008700010BD2DE9F0470D4699469246044600F119
:1008800024080168880604D5E06921F01001216080
:1008900000E00120A84201DD471B00E00027A1691C
:1008A0007A1902EB0900081AA0612078C00602D468
:1008B0002046FFF7EBFD002608E0D4E901211AF8F5
:1008C00006009047206A401C761C20624E45F4DBEF
:1008D0002078C0060AD52046FFF7D8FD06E0D4E907
:1008E000012130209047206A401C2062381EA7F169
:1008F0000107F4DC07E0D4E9012118F8050090476E
:10090000206A401C2062281EA5F10105F3DC204668
:10091000FFF7D2FD2078000602D50220BDE8F0875F
:100920000120FBE701694A1C02610878704700B5A5
:100930008FB0CDE901310021059105497944CDE918
:10094000031011466846FFF759FE0FB000BD0000C6
:10095000E5FFFFFF0A6802F8010B0A60704710B557
:10096000436913B1AFF3008001E0FFF7B6FD01204A
:1009700010BD127800F124010A7000224A70012291
:10098000EDE711684FF0FF32E9E70000074B70B563
:100990000D467B44FFF7CBFF0446284600F00CF8D9
:1009A00010B14FF0FF3070BD204670BD77EE0000F3
:1009B0000048704760AA0020007B00F0800070476C
:1009C0000048704760AA00207546FFF7F9FFAE4661
:1009D00005006946534620F00700854618B020B54B
:1009E000FFF72CFCBDE820404FF000064FF0000759
:1009F0004FF000084FF0000B21F00701AC46ACE8C7
:100A0000C009ACE8C009ACE8C009ACE8C0098D4633
:100A100070470446AFF300802046FFF7FBFB002938
:100A2000816802D041F0010101E021F00101816003
:100A3000704700000D4910B5884202D101214415CC
:100A40000AE00B49884202D10121041504E009495A
:100A500088420AD10121CC03204607F0FFFC204642
:100A6000BDE81040002107F0F9BC10BD0024014092
:100A700000280140003C01400146002089684907E8
:100A800000D501207047C06C80B27047024600203C
:100A900012680A4200D00120704701460020896890
:100AA000090700D50120704710B542680E4B0C793C
:100AB0001A400B6842EA04221343436082680B4BDE
:100AC0001A40D1E9024323434C7942EA44021343DA
:100AD0008360C26A097C22F47002491EC9B242EAEC
:100AE0000151C16210BD0000FFFEF0FFFDF7F1FFF4
:100AF00070B5072609290AD9C568A1F10A0404EBD3
:100B00004404A640B543A3401D43C56007E0056902
:100B100001EB4104A640B543A3401D4305611F23DB
:100B2000072A09D2446B521E02EB820293409C4377
:100B300091400C43446370BD0D2A09D2046BD21F4F
:100B400002EB820293409C4391400C43046370BDCE
:100B5000C46A0D3A02EB820293409C4391400C43DD
:100B6000C46270BD816841F008018160704700294E
:100B7000816802D041F4A00101E021F4A00181606C
:100B80007047816841F004018160704710B5FF2013
:100B900000F037F855280AD05521FF2000F077F8EB
:100BA000FF2000F02EF8552801D0012010BD0020B4
:100BB00010BD01F083BB70B515460E46044608E033
:100BC0002046641CA4B200F01CF86D1E06F8010B50
:100BD000ADB2002DF4D170BD2DE9F0410D460146B6
:100BE000002004464E1908E00702301B401E80B268
:100BF00000F007F8641C3844E4B2AC42F4D3BDE81A
:100C0000F08110B5044601F0FDFB200AA02101EBA4
:100C10004000C0B201F0C6FB01F036FCE0B201F0CA
:100C2000C1FB01F031FC01F0EDFBA12001F0BAFBAA
:100C300001F02AFC002001F07FFB044601F002FCD9
:100C4000204610BD70B514460D46064606E02978CC
:100C5000304600F01CF8761CB6B26D1C641EA4B2BF
:100C6000F5D270BD2DE9F04116460D460746002429
:100C700009E0E00025FA00F0C1B2381980B200F0B6
:100C800006F8641CE4B2B442F3D3BDE8F08170B559
:100C90000D46044601F0B6FB200AA02101EB4000FE
:100CA000C0B201F07FFB01F0EFFBE0B201F07AFB94
:100CB00001F0EAFB284601F075FB01F0E5FB01F0CD
:100CC000C1FBBDE8704042F210700DF073B8000037
:100CD00030B587B001214FF4017007F0B3FB4FF43A
:100CE000004007F099FB0220ADF8140000248DF8B5
:100CF000174005A9164800F08BFF164D2846FFF750
:100D000099FE4FF46020CDE9020401208DF80440E3
:100D10008DF8100000948DF8054069462846FFF7CD
:100D2000C3FE01212846FFF77AFE2846FFF71AFF87
:100D30002846FFF7B2FE0028FAD12846FFF721FF28
:100D40002846FFF799FE0028FAD107B030BD000011
:100D5000000801400024014010B5012007F08AFB83
:100D6000BDE81040002007F085BB000008B502492F
:100D700008440090008808BD006C004008B5024A95
:100D800010440090016008BD006C004010B578B1BF
:100D90004FF48054012805D002280FD110210120E2
:100DA00008F0EAFD2146BDE81040022008F09CBD95
:100DB0001021BDE81040012008F0DEBD10BDC1B219
:100DC000000A40EA0120704710B5604B0020604CDB
:100DD000598803E05A68125C2254401C8842F9D3B7
:100DE0005B48626820301F294260A268826007D099
:100DF0000220FFF7CBFF00202060607B1A2221E059
:100E0000E17B282901D02A290AD1D4F81100227DBA
:100E100000BA20F0FF0010439860E08A40BAD86022
:100E20004C4A2068904252D14B4A607B12689042F3
:100E300003D8A27B0AB1102A0DD90220FFF7A6FF22
:100E4000607B2422052108F031FE0021BDE810401E
:100E5000012008F00BBE252958D01ADC152971D0C5
:100E60000DDC08296ED005DCB9B3032936D004297E
:100E70002DD163E00A2965D0122928D132E01A3930
:100E80000A2924D2DFE801F03632235E32232323FD
:100E9000233E8A2956D00EDC552953D006DC28295A
:100EA0003CD02A2940D02F2911D143E05A2925D0FE
:100EB00088290CD146E0A82944D004DC8F2941D0F0
:100EC0009E2904D13EE0AA293CD0AF293AD0022085
:100ED000FFF75CFF607B2022B4E71BE0BDE8104019
:100EE00007F0C0BFBDE8104007F0DABEBDE8104013
:100EF00007F0C4BFBDE8104007F00CBFBDE81040CC
:100F000007F002BFBDE8104007F076BFBDE8104013
:100F100007F03ABFBDE8104007F0B4BFD3E90212B2
:100F2000BDE8104007F0FCBED3E90212BDE8104056
:100F300007F0DEBFBDE8104007F0C0BFBDE81040BD
:100F400007F096BEBDE8104007F0C4BE4002002086
:100F500030AA002055534243A80200202DE9F84F43
:100F60000020ADF800004BF6BF7648F280084A4DED
:100F70004A4C40F68F7ADFF8289148F60F7B494FAC
:100F80002FE0088810F00F0089F8000032D007EB3E
:100F90008001D1F8002CADF80020BDF8002012042B
:100FA0000BD5D1F8002C02EA0A02C1F8002C3E4908
:100FB00001EB800050F8040C8047BDF800000006EB
:100FC0000FD599F8000007EB8001D1F8002C02EA58
:100FD0000B02C1F8002C354901EB800050F8040CDD
:100FE00080472D4844300068314908800004C8D447
:100FF000BDE8F88F28682080208800F030006080ED
:10100000208800F4405020802868304080F4005050
:1010100080F0200040EA080028600888C00617D445
:10102000296801EA0B01296001F05AFA28E02188B9
:10103000890401D580F400506188C90628D46188EC
:10104000890601D580F0200040EA08002860CFE73B
:101050002868ADF80000BDF80000000506D5296835
:1010600001EA0A01296008F033FD09E0BDF800003B
:101070000004B6D5286800EA0A00286007F05EF987
:10108000286821883040C904D1D580F48050CEE74B
:1010900080F01000D3E70000005C004072010020E7
:1010A00060010020005000408C02002070020020EF
:1010B0006C02002070B50D4C0025C4F880510C481E
:1010C000016821F470410160016841F44051016000
:1010D000C4F88C510A2004F5C0740CF06BFE01209A
:1010E00020600A200CF066FE256070BD00002242E0
:1010F000001001400C48816941F0100181610B48EA
:1011000001684FF20F0291430160016843F203024C
:1011100011430160C16841F00201C160C16841F042
:101120000801C1607047000000100240001001403B
:1011300070B50D4C0026C4F880610C48016821F49C
:1011400070410160016841F4405101600125C4F81B
:101150008C510A2004F5C0740CF02CFE25600A2086
:101160000CF028FE266070BD0000224200100140F5
:101170002DE9F047814616480024016821F47041AA
:101180000160016841F400410160124E2546274686
:101190004FF00108C6F880711E200CF00BFEC6F857
:1011A00080816006040ED6F80C0108B1641CE4B21C
:1011B0006D1CEDB2082DEDD3B9F1000F04D0FFF78F
:1011C00079FF2046BDE8F087FFF7B2FFF9E700009E
:1011D00000100140000022422DE9F041054612486E
:1011E000016821F470410160016841F440510160DF
:1011F0000E4E0027C6F880713C464FF00108E80902
:10120000C6F88C016806050EC6F880810A200CF02D
:10121000D1FDC6F880710A200CF0CCFD641CE4B24C
:10122000082CECD3BDE8F081001001400000224200
:1012300070B50D48016821F470410160016841F406
:1012400040510160094C0120C4F88C01C4F88001B0
:101250000A2004F5C0740CF0ADFD0025E5600A20FD
:101260000CF0A8FD256070BD001001400000224276
:1012700070B50D48016821F470410160016841F4C6
:1012800040510160094C0020C4F88001C4F88C0171
:101290000A2004F5C0740CF08DFD012525600A209C
:1012A0000CF088FDE56070BD001001400000224296
:1012B00070B513480024016821F470410160016891
:1012C00041F4004101600F4D0126C5F88C613046A4
:1012D0000CF070FDC5F8806101200CF06BFD07E09B
:1012E000641CE4B2FA2C03D9FFF7C2FF012070BDE1
:1012F000D5F80C010028F3D1C5F8800170BD0000BD
:101300000010014000002242810008480844D0F843
:10131000001C490409D5D0F8001C48F68F72114012
:101320004CF280021143C0F8001C7047005000408E
:10133000810008480844D0F8001C490609D5D0F8B7
:10134000001C48F68F72114048F2C0021143C0F8E9
:10135000001C704700500040810006480844D0F847
:10136000001C48F68F62114048F280021143C0F819
:10137000001C70470050004070B5164800240168FA
:1013800021F00F010160016841F008010160124D78
:1013900004E0641CE4B201200CF00CFDD5F800015F
:1013A00010B1C82CF5D30DE0C82C0BD2002404E0FA
:1013B000641CE4B201200CF0FDFCD5F8000118B16A
:1013C000F02C04D3012070BDF02CF1D3FAE70020FB
:1013D00070BD0000000801400000214270B500F01F
:1013E000A9F800F087F8FFF7C7FFCC2000F0B0F8AD
:1013F000BE2000F0ADF800F06DF8044600F06AF889
:10140000072805D9C043E143C0B2CCB2002500E0B3
:10141000012504EB002000B213F0B7F80022054BC1
:1014200013F0DEF813F054F800B2002D01D1404261
:1014300000B270BD0000E43F38B50121042007F080
:1014400001F80120ADF8000010208DF80300032002
:10145000074C8DF802006946204600F0D9FB0121B7
:10146000204600F051FC00F045F8FFF785FF38BD3D
:101470000008014070B5154C206820F00F00206076
:10148000206840F003002060114D0020C5F8800165
:10149000022005F5C0750CF08DFC01202860206845
:1014A00020F00F002060206840F0080020600C2031
:1014B0000CF080FC55F8800C08B1012400E00024F9
:1014C00032200CF077FC204670BD0000000801407F
:1014D0000000214270B500250124FFF7CBFFC001B9
:1014E000641C40EA5500E4B2C5B2082CF5D9284680
:1014F00070BD00000D4810B5016821F00F010160BA
:10150000016841F003010160094C0020C4F880012A
:1015100040F2EE2004F5C0740CF04CFC0120206079
:10152000BDE810400F200CF045BC00000008014051
:101530000000214210B5FFF7DDFFFFF71DFFCC20B3
:1015400000F006F8BDE81040442000F001B80000AB
:101550002DE9F04105461448016821F00F010160B2
:10156000016841F0030101600124104E0027A046EC
:1015700015F0010F4FEA5505C6F8807106D002201C
:101580000CF018FCC6F880813C2005E03C200CF0F3
:1015900011FCC6F8808102200CF00CFC641CE4B243
:1015A000082CE5D9BDE8F081000801400000214287
:1015B0002DE9F047DFF89490254F4FF03008D9F827
:1015C000001001F11005088A0E7A08B9042E04D023
:1015D000AC88A04215D8042614E01E4801780129E1
:1015E00003D00726102038802BE01B4A0021126808
:1015F0001A4B120403EBD2325160A7F8008001703D
:101600001FE00226844200D90446A9682046884784
:101610008246002000F04EFD01462246504609F069
:1016200013FD2146002008F099F92888001B288026
:10163000688820446880A7F8008009494FF440502A
:101640000880D9F800000672BDE8F0876401002028
:10165000740100205C010020505C004000600040EC
:10166000720100202DE9F047224EDFF88C803027F0
:10167000346834F8100FA168A9B100B3A588854279
:1016800000D905462846884781462088401B20808F
:10169000608828446080002000F0E0FC01462A4673
:1016A000484606F06FFE208848B114494FF4405078
:1016B00008800021084608F051F9A8F80070208839
:1016C000A188884201D3032001E020B105203168C0
:1016D0000872BDE8F08731680620087208490020CA
:1016E0000968084A090402EBD1314860A8F8007083
:1016F000EFE7000064010020740100207201002067
:10170000505C004000600040F8B55D4C5D4D09261E
:101710002068002729684278062A05D0AAB1082A3D
:101720004DD00A2A50D06BE00278520668D18078FA
:10173000012804D0022804D0032804D060E0C9693D
:1017400056E0096A54E0496A52E04288B2BBC28856
:10175000022A55D102798ABB0278530601D18388C7
:1017600033B102F07F02012A04D0022A0CD047E0F4
:1017700045493DE08A69407900219047F0B92068E9
:10178000807A0028F4D13BE0417901F00F0001F0AC
:1017900070020B063D4901EB8001D1F8001C03D516
:1017A000C1F30111090102E0C1F301310903384B12
:1017B0001B78834224D90AB90029D9D120E00078C6
:1017C00040061DD1334913E0027802F07F02012A5E
:1017D00016D1827AA2B1428892B9027982B9C288BE
:1017E000012A0DD18A6940790021904740B92A49E0
:1017F00031B120684782816100208847002006E0DF
:1018000029682068096940788847032813D021682F
:101810000A8AA2F57F43FF3B0BD002280ED06AB1A3
:101820000878000626D5C888009082420AD9088226
:1018300018E00E72F8BD20680672F8BD4FF008007F
:101840000872F8BD0ED22868144B90F82C00824222
:1018500001D21F7006E0B2FBF0F400FB142008B9BF
:1018600001201870286890F82C008882BDE8F840A4
:10187000FFF79EBE03200872094900030880F8BDE7
:101880006401002068010020F59D00080050004020
:1018900014030020899D0008CD9D00085C010020F4
:1018A0007201002005F094BD05F0D0BD014908602B
:1018B000704700001404014030B51A4A837901686A
:1018C00053B313688B431360111D0B680468A34363
:1018D0000B60017911440B68046823430B60114BC2
:1018E000083319680468A14319601C1D2168056844
:1018F000A94321604179102905D011440A68006884
:1019000002430A6030BD19680268114319602168FA
:1019100000680143216030BD0079104402688A43A9
:10192000026030BD0004014010B503A0FEF78EFD3B
:1019300008490320086010BD75736220656E7465E8
:1019400072206C6F7720706F776572206D6F6465A1
:101950000D0A00003C0300207CB50121102006F098
:1019600071FD4FF40054ADF8044010208DF80700CD
:1019700003202D4D8DF8060001A9284600F048F9F6
:101980002146284600F0C0F90221ADF80410482194
:101990008DF8071001A9284600F03AF902212846DF
:1019A00000F0B2F9FFF7A6FB204D0024C5F8B441C2
:1019B000142005F5DA750CF0DBF9012028603220DF
:1019C0000CF0D6F98DF8004001226946002000F0A5
:1019D000FBF801226946A42000F0F6F816208DF8E5
:1019E000000001226946802000F0EEF80C208DF8FE
:1019F000000001226946882000F0E6F802226946CC
:101A0000A12000F01BF89DF80000302803D19DF8BC
:101A10000100032801D001207CBD43F2030104A092
:101A2000FEF714FD00207CBD0010014000002242A2
:101A30004354502049443A25780D0A002DE9F041DD
:101A400015460F460446FFF7F3FB7020FFF7C4FB73
:101A5000FFF72EFCE0B2FFF7BFFBFFF729FCFFF713
:101A6000E7FB7120FFF7B8FBFFF722FC00246E1E96
:101A700009E0B44201D0012000E00020FFF778FB2C
:101A80003855641CE4B2AC42F3D3BDE8F041FFF733
:101A9000EFBB00002DE9F143484F00244FF00A0945
:101AA000387882B0401CC0B2B0FBF9F209FB1201D9
:101AB000434DA046387009B10A2863D2012202A919
:101AC0000220FFF7BBFF9DF8080001075AD000F085
:101AD0000F00062856D2FF218140C84340F0C000C5
:101AE00085F820004FF00108002695F8201008FA2C
:101AF00004F0014239D033480422694630F814001A
:101B0000FFF79CFF95F830009DF80010C0079DF886
:101B1000010001F00F010ED000EB012105EB4400A4
:101B2000C1829DF802209DF8031002F00F0201EB24
:101B3000022181810FE000EB0120C0F5F07105EB7F
:101B4000440081819DF802209DF8031002F00F02ED
:101B500001EB0221C1829DF800000821B1EB101FAA
:101B600003D005EB4400C6828681641CE4B2052CD8
:101B7000BBD3A9894FF0010819B9E88A08B98DF8D3
:101B800008603E709DF80800C0060ED195F8200050
:101B9000010602D520F0800005E04FF6FF71A98113
:101BA000E98200F0E00085F820003878F02801D9BB
:101BB00087F800904046BDE8FE83000092000020B8
:101BC00050000020FE6B01082DE9F04115460E463D
:101BD00004460027FFF72CFB7020FFF7FDFAFFF704
:101BE00067FBE0B2FFF7F8FAFFF762FB002408E0BA
:101BF000305DFFF7F1FAFFF75BFB070003D1641CD0
:101C0000E4B2AC42F4D3FFF733FB3846BDE8F081D1
:101C1000F0B5CC78002204F00F03E40601D58C78EF
:101C200023430C784FF00F0C14F0FF0F4FF0010E10
:101C30001BD005680E880EFA02F42640A64210D189
:101C400096000CFA06F725EA070703FA06F5CE78A0
:101C50003D43282E02D0482E02D002E0446100E02D
:101C60000461521C082AE5D305600A88FF2A1CD9A2
:101C70004468002202F108060EFA06F50E882E408E
:101C8000AE420ED196000CFA06F7BC4303FA06F7F3
:101C9000CE783C43282E00D14561CE78482E00D125
:101CA0000561521C082AE5D34460F0BDF0B5144C20
:101CB000002801DAE36900E06368450D2E0185B272
:101CC000C0F30157B540C0F30342032F05D0C6024D
:101CD0000AD503269640B34307E023F07062636899
:101CE00023F07063636002E0AB4343F0706201B1C4
:101CF0002A43002801DAE261F0BD6260F0BD000015
:101D0000000001404161704701617047FEB501214B
:101D1000102006F097FB42F20200ADF808001020F8
:101D20008DF80B000320334E8DF80A0002A93046CF
:101D3000FFF76EFF02213046FFF7E6FF71143046D1
:101D4000FFF7E2FFFFF7D6F92B4D0024C5F8B441A9
:101D50000A2005F5DA750CF00BF8012028600A203E
:101D60000CF006F80225ADF8085028208DF80B007D
:101D700002A93046FFF74CFF02213046FFF7C2FFB1
:101D800064200BF0F5FF0422694648F2401000F091
:101D900049F88DF80440694618A0FEF757FB1AA1D0
:101DA0006846FEF717FD08B10120FEBD8DF8005012
:101DB00048F2400501226946284600F025F9012233
:101DC0006946E81D00F02EF89DF80010602905D244
:101DD0000FA0FEF73BFB012000F0F0F80A200BF00B
:101DE000C7FF8DF8004001226946284600F00CF933
:101DF0000020FEBD0010014000002242435450204C
:101E000049443A25730D0A00393134370000000087
:101E100044656661756C74205665723A25640D0AD6
:101E2000000000002DE9F04115460F460446FFF77B
:101E3000FFF92820FFF7D0F9FFF73AFA200AFFF759
:101E4000CBF9FFF735FAE0B2FFF7C6F9FFF730FA42
:101E5000FFF7EEF92920FFF7BFF9FFF729FA002471
:101E60006E1E09E0B44201D0012000E00020FFF71F
:101E70007FF93855641CE4B2AC42F3D3BDE8F041BD
:101E8000FFF7F6B92DE9F147494E00244FF00A0952
:101E9000307883B0401CC0B2B0FBF9F209FB1201EC
:101EA000444DA046307009B10A2863D248F24E1A58
:101EB000012203A95046FFF7B5FF9DF80C004FF033
:101EC0000007010747D000F00F01062943D2FF2089
:101ED00088408DF80400C04340F0C00085F8200021
:101EE0004FF0010895F8201008FA04F0014225D0BF
:101EF00031480422694630F81400FFF793FF95F843
:101F000030009DF80110C0079DF8000000EB012192
:101F100005EB44000AD0C1829DF802109DF8032011
:101F200001EB0221C1F54871818107E081819DF8B3
:101F300002109DF8032001EB0221C182641CE4B26F
:101F4000052CCFD3A9894FF0010819B9E88A08B93F
:101F50008DF80C7037709DF80C0001060AD500F062
:101F60000F00062806D28DF80470012201A9504600
:101F700000F04AF89DF80C0000F08F0080280ED188
:101F800095F82000010602D520F0800005E04FF60C
:101F9000FF71A981E98200F0E00085F82000307827
:101FA000F02801D986F8009004B04046BDE8F087DB
:101FB0009100002050000020F46B010808B50021BA
:101FC0008DF800108DF801000E489DF80020435C4C
:101FD000491C1A44C9B28DF80020B829F5D3D0B2F3
:101FE000C043401C8DF80000B822064948F2470063
:101FF00000F00AF80222694648F2FF0000F004F8F7
:10200000002008BD3C6B01082DE9F04115460E4645
:1020100004460027FFF70CF92820FFF7DDF8FFF74B
:1020200047F9200AFFF7D8F8FFF742F9E0B2FFF7C7
:10203000D3F8FFF73DF9002408E0305DFFF7CCF856
:10204000FFF736F9070003D1641CE4B2AC42F4D3C5
:10205000FFF70EF93846BDE8F08100000549096830
:1020600089B201EBC000044901EB4000008980B255
:1020700070470000505C004000600040054909685E
:1020800089B201EBC000044901EB40008089C0F334
:1020900009007047505C004000600040044901EBBB
:1020A0008000D0F8000CC0F301300003704700003E
:1020B000005000400449096889B201EBC00003499F
:1020C00031F8100080B27047505C00400060004062
:1020D00010B50B4C0146072301222046FEF708FDF0
:1020E00001212046FEF743FD02212046FEF7CEFCEB
:1020F0000028F9D02046BDE81040FEF7C4BC00001F
:10210000002401402DE9F041154602460C466807BF
:1021100000D0012000EBD5006843C1B2107853789D
:10212000812809D3402B07D3FF2B05D0FF2803D0EC
:102130007F2B0CD2403B0BE00022104603E0521CE8
:1021400004F8010BD2B28A42F9D3BDE8F081413BD9
:102150008138DAB2C0B2C0EB401303EB801002EB5F
:1021600040064E43FEF77CF807460F480C2D04D07E
:10217000102D07D0182D0CD110E0D0F809008119CE
:10218000182203E0D0F8110081192022204607F020
:1021900025FA3846BDE8F041FEF766B8D0F81900D8
:1021A00081194822F2E70000F8A0002008B1044895
:1021B0007047044901200968088200207047000028
:1021C000A8020020640100200A4810B50168001D23
:1021D0000468001D006808180BD00822064900F0AA
:1021E000ADF9054920460422BDE81040103100F049
:1021F000A5B910BDE8F7FF1F5202002070B50025F9
:102200002C461020FFF764FF284485B201200BF014
:10221000AFFD641CE4B2142CF3D31420B5FBF0F032
:1022200012F0CAF94FF066320D4B12F0D9F911F0E5
:1022300015FF12F0AFFC0B4A0B4B12F0CFFA0B4A12
:102240000B4B11F0EDFF00220A4B11F039FF11F09A
:1022500005FF094912F09CFEBDE8704012F030BE47
:1022600066664A3FE17A14AE47E1F63F22FDF67515
:10227000E09C713F000039400000204170B50D4CDA
:102280000025C4F8B0510C48416821F47041416008
:10229000416841F440514160C4F8AC51022004F55A
:1022A000D6740BF087FD0120606002200BF082FDE8
:1022B000656070BD000022420010014008B5012198
:1022C000102006F0BFF84FF4C050ADF80000102009
:1022D0008DF8030003208DF8020069460448FFF7DB
:1022E00097FC04480121C0F8B011C0F8AC1108BD3A
:1022F000001001400000224270B50D4C0026C4F8C9
:10230000B0610C48416821F470414160416841F47A
:10231000405141600125C4F8AC51022004F5D67447
:102320000BF048FD656002200BF044FD666070BD57
:1023300000002242001001402DE9F0478146174875
:102340000024416821F470414160416841F400413A
:102350004160134E254627464FF00108C6F8B0717C
:1023600002200BF027FDC6F8B0816006040ED6F8F7
:102370002C0108B1641CE4B201200BF01BFD6D1CA4
:10238000EDB2082DEAD3B9F1000F04D0FFF776FFC4
:102390002046BDE8F087FFF7AFFFF9E700100140E6
:1023A000000022422DE9F04105461448416821F41D
:1023B00070414160416841F440514160104E002736
:1023C000C6F8B0713C464FF00108E809C6F8AC0108
:1023D0006806050E02200BF0EDFCC6F8B081022065
:1023E0000BF0E8FCC6F8B07102200BF0E3FC641CB3
:1023F000E4B2082CE9D3BDE8F081000000100140F0
:102400000000224270B50D48416821F470414160DE
:10241000416841F440514160094C0120C4F8AC01CD
:10242000C4F8B001042004F5D6740BF0C3FC0025F9
:10243000256004200BF0BEFC656070BD00100140FB
:10244000000022420E4810B5416821F470414160FD
:10245000416841F4405141600A4C0020C4F8B00189
:10246000C4F8AC01042004F5D6740BF0A3FC0120E1
:1024700060602060BDE8104004200BF09BBC0000B1
:10248000001001400000224270B51348002441684A
:1024900021F470414160416841F4004141600F4DB9
:1024A0000126C5F8AC6130460BF084FCC5F8B0617C
:1024B00001200BF07FFC07E0641CE4B2FA2C03D986
:1024C000FFF7C0FF012070BDD5F82C010028F3D123
:1024D000C5F8B00170BD00000010014000002242AC
:1024E00010B5134C2068017A022904D0042902D0C7
:1024F000062905D015E0FFF75BF82068007A11E0A7
:102500004178052909D10178490606D1C07807F03C
:1025100097F908480068006A8047074800688068A3
:102520008047082021680872BDE8104005F040BFD0
:10253000640100206C01002068010020F0B5002338
:102540000A24302537261F4610E0B4EB107F02D94D
:1025500005EB107C01E006EB107C01F813C001EBE9
:10256000430C00015B1C8CF80170DBB29342ECD38E
:10257000F0BD81070CD16421B0FBF1F201FB120127
:1025800041B94FF4C871B0FBF1F201FB120008B180
:10259000002070470120704738B50121142005F054
:1025A00051FF01211148FFF781FB4FF40040ADF8C6
:1025B00000000F4D48248DF8034069462846FFF778
:1025C00027FB2021ADF800108DF80340694609482B
:1025D000FFF71EFB0120ADF8000028208DF8030056
:1025E00069462846FFF714FB38BD000000023000A2
:1025F000000801400010014070B51C4C1C4E1D4DE0
:10260000012108B1217001E0207848B1D6F8140109
:1026100058B1D5F83C0140B1D5F80001012804D0EB
:10262000D6F81401012816D01DE00A200BF0A0FBFB
:1026300000202070D6F8140138B1D5F83C0130B133
:10264000D5F80001012804D00DE0012070BD022062
:1026500070BD032070BDD5F83C01012803D1D5F829
:10266000000100B92170002070BD0000380000207A
:102670000000224200002142C0F34511C20AC002FC
:1026800000EB4110104480B2704700002DE9F04388
:102690001C4F0646002438887D884543B888A0F53D
:1026A000D041043902D1B87901280CD00021084664
:1026B00004F006FA04F0E0FC13494FF480774B1560
:1026C000124A80201AE00020B8714FF02A08A7F8BB
:1026D0000A804FF02B09A7F80C90014604F0F0F99E
:1026E0000120B871A7F80A90A7F80C80E2E70F6103
:1026F0004B611660486108610B61641CAC42F6D303
:10270000BDE8F083180C0020001001400C0C0140C3
:102710002DE9F04F8346A2EB0B00401C894685B2A1
:10272000A3EB0900401C1FFA80FA0024099E21E057
:1027300009EB040081B2584604F0C2F904F09CFC95
:102740000E4900204B154FF480780D4A80270DE08C
:10275000C1F810804B6104FB050C36F81CC0C2F8B0
:1027600000C04F610F610B61401C80B2A842EFD3E3
:10277000641CA4B25445DBD3BDE8F08F00100140C7
:102780000C0C01402DE9F04F4A492A232B2489885B
:1027900045F2105A4FF4305B4FF4285E4FF4487501
:1027A0004FF0F00C49F241394FF4A07745F2103662
:1027B0004FF4F07280B13F484FF00108494580F86E
:1027C00006800780A0F802C001D0B1423ED12C257E
:1027D00005814381848157E036484FF00008494520
:1027E00080F80680A0F800C0478006D0A1F5D04C44
:1027F000BCF1040C01D0B1420CD12C2505814381E0
:10280000A1F5D0438481043B01D0B14244D107807B
:10281000428041E0514507D1A0F808B0A0F80AE095
:102820004FF42C5181810EE0A1F5C856633E06D0CD
:102830002221018120214181212181812CE02C2133
:102840000181448183810280458025E0A1F5D04C3F
:10285000BCF1040C09D051450BD1A0F808B0A0F888
:102860000AE04FF42C53838121E02C25058144811B
:1028700009E0A1F5C85CBCF1630C12D022230381EE
:102880002123438120238381A1F5D043043B01D040
:10289000B14201D102804780BDE8F04F002003F033
:1028A00095BF4FF02C0CA0F808C0438184810580AF
:1028B0004280E9E7180C00202DE9FE4F0026A2EB2C
:1028C000000882465F1A701E35468946B8F1000F2F
:1028D00002DD4FF0010102E003D14FF00001019150
:1028E00002E0C8F100080190002F02DD4FF0010066
:1028F00002E003D14FF00000009002E0C7F10007B2
:1029000000904046B84501DD044600E03C46601CAE
:102910004FF0000B029015E01FFA89F11FFA8AF0C0
:1029200000F016F846443D44A64202DD0199361BEC
:102930008A44A54202DD00992D1B89440BF1010058
:102940001FFA80FB02998B45E6DDBDE8FE8F000093
:1029500000B504F0B5F804F08FFB07484FF4807120
:10296000016141154161054A054B12881A608022B8
:1029700042610261016100BD001001403E00002083
:102980000C0C01402DE9FC4F804600241546032025
:102990000F46A0EB450649E0781B81B208EB040A1C
:1029A00001901FFA8AF0FFF7D3FF381B81B208EBC2
:1029B000050900901FFA89F0FFF7CAFF07EB040B27
:1029C0001FFA8BF11FFA89F0FFF7C2FF07EB050929
:1029D0001FFA89F11FFA8AF0FFF7BAFFA8EB040A81
:1029E0001FFA89F11FFA8AF0FFF7B2FFA8EB050979
:1029F0001FFA8BF11FFA89F0FFF7AAFF019881B245
:102A00001FFA8AF0FFF7A4FF009881B21FFA89F03D
:102A1000FFF79EFF641C002E03DA06EB8406B61D4A
:102A200004E0601B06EB80066D1E0A36AC42B3DD87
:102A3000BDE8FC8F2DE9F74F05468F4881B0DFF8E0
:102A40003CA2818802982F0A00F0FF094FEA102863
:102A5000E8B200908848A1F513424FF4807B40898A
:102A60004FF40076413A17D0834CA1F5A642103AB4
:102A700012D0B2F5007236D02246A1F5C85793792C
:102A80001288521B521E633F63D0A1F5D047043F0A
:102A90007ED0012B7DD0D1E004F0DCFA784CC4F874
:102AA00010B06661CAF800708025656125612661F5
:102AB000C4F810B066610098CAF80000656125612D
:102AC00026616D48808904F0C5FAC4F810B06661CB
:102AD0005146CAF80080656125612661C4F810B0CE
:102AE0006661484631E004F0B5FA654CC4F810B0B0
:102AF0006661CAF8007080256561256126615E48BF
:102B00004089401C80B204F0A5FAC4F810B0666198
:102B10000098CAF8000065612561266156488089E1
:102B200004F098FAC4F810B06661CAF800806561D4
:102B30002561266150488089401C80B204F08AFAE1
:102B4000C4F810B066614846514608606561256169
:102B500071E003B995B204F07DFA494CC4F810B0A5
:102B60006661280ACAF8000080276761276126612C
:102B7000C4F810B06661E9B2CAF800106761276155
:102B80002661C4F810B06661CAF80000676101E010
:102B900024E052E027612661C4F810B06661CAF8EB
:102BA00000106761276126613348808904F052FA7A
:102BB000C4F810B066615146CAF8008067612761A9
:102BC0002661C4F810B06661CAF800906761276199
:102BD0002661C4F810B06661404621E0012B00D1A7
:102BE00095B204F037FA264CC4F810B06661290A91
:102BF000CAF800108027676127612661C4F810B009
:102C00006661E9B2CAF800106761276126611A4857
:102C1000808904F01FFAC4F810B06661404651463E
:102C20000860676127612661C4F810B06661C1F869
:102C3000009067612761266107E095B2294604F09C
:102C400021FAA089029904F01DFA0D48C0F814B0C9
:102C5000466109490989CAF8001080214161016172
:102C60000661C0F810B04661039BCAF800304161AC
:102C700001610661BDE8FF8F180C00200C0C0140BB
:102C8000001001402DE9F84F264D81469846A8884E
:102C90000A9EA0F5D043043B02D1A87901280AD0AE
:102CA000A2EB0900401C85B20C461F4F4FF4007A7E
:102CB0004FF0800B32E02B880846991A0024AC7143
:102CC0002A24A3EB09036C812B27491E5B1EAF81CD
:102CD00089B242469BB20096FFF7D4FF0120A8714B
:102CE0006F81AC81BDE8F88F2146484603F0E8FECD
:102CF00004F0C2F900204FF4807C53460B4A594639
:102D000008E0C7F810C07B611660796139613B61EA
:102D1000401C80B2A842F4D3641CA4B24445E3D959
:102D2000E0E70000180C0020001001400C0C0140EE
:102D30002DE9F84F0121192005F084FB0121FE48FF
:102D4000FEF7B4FF4FF4F864ADF8004010208DF8A2
:102D50000300DFF8E88303208DF80200694645464A
:102D60004046FEF755FF21462846FEF7CDFFF44DBD
:102D70004FF6FF74ADF8004069462846FEF748FF5D
:102D800021462846FEF7C0FF32200AF0F1FF01215C
:102D9000002004F077F932200AF0EAFF002003F067
:102DA000BFFCE84C49F2413746F60409A08045F2E1
:102DB000103A45F21055FF2806D3A0F57F41FF39A0
:102DC00002D0B0F5134F70D1D32004F043F903F0D3
:102DD000A7FB03F0A5FB03F0A3FB4FF6FF7606EA83
:102DE0000020A08003F09CFBA1880843A080B8428B
:102DF0005BD0BF2004F02EF903F092FB03F090FBB0
:102E000003F08EFB03F08CFB06EA0020A08003F0A9
:102E100087FBA1880843A080484546D0D42004F011
:102E200019F903F07DFB03F07BFB03F079FB06EA65
:102E30000020A08003F074FBA1880843A0805045C7
:102E400033D04FF45A4004F005F903F069FB4FF416
:102E50005B4004F0FFF803F063FB06EA0020A0806B
:102E60004FF45C4004F0F6F803F05AFBA1880843E5
:102E7000A080B0F5004F7DD0A84216D0A12004F06C
:102E8000E9F803F04DFBA08003F04AFB06EA0020BE
:102E9000A08003F045FBA1880843A0F5AE41A080C7
:102EA000613902D141F66310A080A188A6A0FDF788
:102EB000CDFAA088B8427DD1CF2004F0CBF8002015
:102EC00004F0B6F8C12004F0B3F8302004F0B0F8F4
:102ED000ED2004F0BFF8642004F0AAF8032004F009
:102EE000A7F8122004F0A4F8812004F0A1F8E8204B
:102EF00004F0B0F8852004F09BF8102004F098F856
:102F00007A2004F095F8CB2004F0A4F8392004F0DE
:102F10008FF82C2004F08CF8002004F089F834207D
:102F200004F086F8022004F083F8F72004F092F809
:102F3000202004F07DF8EA2004F08CF8002004F052
:102F400077F8002004F074F8C02004F083F81B2008
:102F500004F06EF8C12004F07DF8012004F068F858
:102F6000C52004F077F8302004F062F8302004F037
:102F70005FF800E0B3E0C72004F06CF8B72004F07D
:102F800057F8362004F066F8482004F051F83A204B
:102F900004F060F8552004F04BF8B12004F05AF822
:102FA000002004F045F81A2004F042F8B62004F09E
:102FB00051F800E095E00A2004F03AF8A22004F06D
:102FC00037F8F22004F046F8002004F031F826200B
:102FD00004F040F8012004F02BF8E02004F03AF867
:102FE0000F2004F025F82A2004F022F8282004F00D
:102FF0001FF8082004F01CF80E2004F019F808202F
:1030000004F016F8542004F013F8A92004F010F886
:10301000432004F00DF80A2004F00AF80F2004F011
:1030200007F8002004F004F8002004F001F8002064
:1030300003F0FEFF002003F0FBFFE12004F00AF89C
:10304000002003F0F5FF152003F0F2FF172003F036
:10305000EFFF072003F0ECFF112003F0E9FF06204B
:1030600003F0E6FF2B2003F0E3FF562003F0E0FF20
:103070003C2003F0DDFF052003F0DAFF102003F011
:10308000D7FF0F2003F0D4FF3F2003F0D1FF3F20F4
:1030900003F0CEFF0F2003F0CBFF2B2003F0DAFF6D
:1030A000002003F0C5FF002003F0C2FF012003F061
:1030B000BFFF3F2003F0BCFF2A2003F0CBFF00201E
:1030C00003F0B6FF002003F0B3FF002003F0B0FFD1
:1030D000EF2003F0ADFF112003F0BCFFB8E0A580A6
:1030E000E3E648457ED1112003F0B4FF14200AF036
:1030F0003FFED02003F0AEFF072003F099FF4220EF
:1031000003F096FF1D2003F093FFD12003F0A2FFF0
:10311000002003F08DFF1A2003F08AFF092003F03E
:1031200087FFD22003F096FF012003F081FF2220C9
:1031300003F07EFFC0200FE00002300000100140CD
:10314000000C0140180C0020204C43442049443A14
:1031500025780D0A0000000003F07CFF102003F02A
:1031600067FF3B2003F064FF002003F061FF0220B3
:1031700003F05EFF112003F05BFFC52003F06AFF40
:10318000032003F055FFC82003F064FF002003F084
:103190004FFF252003F04CFF212003F049FF0520BD
:1031A00003F046FF002003F043FF0A2003F040FF36
:1031B000652003F03DFF252003F03AFF772003F060
:1031C00037FF502003F034FF0F2003F031FF0020C1
:1031D00003F02EFFF82003F03DFF012003F028FF4D
:1031E000FE2000E03AE003F035FF002003F020FF6E
:1031F000022003F01DFF202003F02CFF362003F0F7
:1032000029FF082003F014FF3A2003F023FF552084
:1032100003F00EFF2B2003F01DFF002003F008FF3A
:10322000002003F005FF012003F002FF3F2003F020
:10323000FFFE2A2003F00EFF002003F0F9FE00201D
:1032400003F0F6FE012003F0F3FEDF2003F0F0FEB2
:1032500078200AF08DFD292001F0FBBE50457CD17D
:10326000ED2003F0F7FE012003F0E2FEFE2003F064
:10327000DFFEEE2003F0EEFEDE2003F0D9FE21207B
:1032800003F0D6FEF12003F0E5FE012003F0D0FEAE
:10329000DF2003F0DFFE102003F0CAFEC42003F09D
:1032A000D9FE8F2003F0C4FEC62003F0D3FE002019
:1032B00003F0BEFEE22003F0BBFEE22003F0B8FE06
:1032C000E22003F0B5FEBF2003F0C4FEAA2003F005
:1032D000AFFEB02003F0BEFE0D2003F0A9FE0020DB
:1032E00003F0A6FE0D2003F0A3FE002003F0A0FED5
:1032F000112003F09DFE002003F09AFE192003F038
:1033000097FE002003F094FE212003F091FE0020A0
:1033100003F08EFE2D2003F08BFE002003F088FECC
:103320003D2003F085FE002003F082FE5D2003F0C7
:103330007FFE002003F07CFE5D2003F079FE00207C
:1033400003F076FEB12003F085FE802003F070FECE
:10335000002003F06DFE8B2000E0FCE303F068FE2C
:10336000002003F065FE962003F062FE002003F0CB
:103370005FFEB22003F06EFE002003F059FE002035
:1033800003F056FE022003F053FE002003F050FE2F
:10339000032003F04DFE002003F04AFEB32003F0AB
:1033A00059FE002003F044FE002003F041FE0020FF
:1033B00003F03EFE002003F03BFE002003F038FE49
:1033C000002003F035FE002003F032FE002003F061
:1033D0002FFE002003F02CFE002003F029FE002029
:1033E00003F026FE002003F023FE002003F020FE61
:1033F000002003F01DFE002003F01AFE002003F061
:1034000017FE002003F014FE002003F011FE002040
:1034100003F00EFE002003F00BFE002003F008FE78
:10342000002003F005FE002003F002FE002003F060
:10343000FFFDB42003F00EFE8B2003F0F9FD002009
:1034400003F0F6FD962003F0F3FD002003F0F0FDFD
:10345000A12003F0EDFD002003F0EAFDB52003F00C
:10346000F9FD022003F0E4FD002003F0E1FD03205C
:1034700003F0DEFD002003F0DBFD042003F0D8FDA7
:10348000002003F0D5FDB62003F0E4FD002003F09A
:10349000CFFD002003F0CCFDB72003F0DBFD0020C2
:1034A00003F0C6FD002003F0C3FD3F2003F0C0FD84
:1034B000002003F0BDFD5E2003F0BAFD002003F004
:1034C000B7FD642003F0B4FD002003F0B1FD8C20B3
:1034D00003F0AEFD002003F0ABFDAC2003F0A8FD2F
:1034E000002003F0A5FDDC2003F0A2FD002003F086
:1034F0009FFD702003F09CFD002003F099FD9020BB
:1035000003F096FD002003F093FDEB2003F090FD07
:10351000002003F08DFDDC2003F08AFD002003F085
:1035200087FDB82003F096FD002003F081FD002008
:1035300003F07EFD002003F07BFD002003F078FD0A
:10354000002003F075FD002003F072FD002003F061
:103550006FFD002003F06CFDBA2003F07BFD2420FA
:1035600003F066FD002003F063FD002003F060FD22
:10357000002003F05DFDC12003F06CFD202003F06E
:1035800057FD002003F054FD542003F051FD0020AE
:1035900003F04EFDFF2003F04BFD002003F048FD3B
:1035A000C22003F057FD0A2003F042FD002003F083
:1035B0003FFD042003F03CFD002003F039FDC32053
:1035C00003F048FD3C2003F033FD002003F030FD04
:1035D0003A2003F02DFD002003F02AFD392003F0EE
:1035E00027FD002003F024FD372003F021FD0020FB
:1035F00003F01EFD3C2003F01BFD002003F018FD2E
:10360000362003F015FD002003F012FD322003F0F8
:103610000FFD002003F00CFD2F2003F009FD00201A
:1036200003F006FD2C2003F003FD002003F000FD55
:10363000292003F0FDFC002003F0FAFC262003F013
:10364000F7FC002003F0F4FC242003F0F1FC002040
:1036500003F0EEFC242003F0EBFC002003F0E8FC78
:10366000232003F0E5FC002003F0E2FC3C2003F003
:10367000DFFC002003F0DCFC362003F0D9FC002046
:1036800003F0D6FC322003F0D3FC002003F0D0FC82
:103690002F2003F0CDFC002003F0CAFC2C2003F007
:1036A000C7FC002003F0C4FC292003F0C1FC00206B
:1036B00003F0BEFC262003F0BBFC002003F0B8FCA6
:1036C000242003F0B5FC002003F0B2FC242003F01A
:1036D000AFFC002003F0ACFC232003F0A9FC002089
:1036E00003F0A6FCC42003F0B5FC622003F0A0FCAC
:1036F000002003F09DFC052003F09AFC002003F05D
:1037000097FC842003F094FC002003F091FCF0204F
:1037100003F08EFC002003F08BFC182003F088FCE3
:10372000002003F085FCA42003F082FC002003F0BD
:103730007FFC182003F07CFC002003F079FC502073
:1037400003F076FC002003F073FC0C2003F070FC07
:10375000002003F06DFC172003F06AFC002003F04A
:1037600067FC952003F064FC002003F061FCF3206B
:1037700003F05EFC002003F05BFCE62003F058FC45
:10378000002003F055FCC52003F064FC322003F058
:103790004FFC002003F04CFC442003F049FC0020C7
:1037A00003F046FC652003F043FC002003F040FCDE
:1037B000762003F03DFC002003F03AFC882003F063
:1037C00037FC002003F034FCC62003F043FC20202B
:1037D00003F02EFC002003F02BFC172003F028FC44
:1037E000002003F025FC012003F022FC002003F060
:1037F0001FFCC72003F02EFC002003F019FC002062
:1038000003F016FC002003F013FC002003F010FC72
:10381000C82003F01FFC002003F00AFC002003F086
:1038200007FC002003F004FC002003F001FCC92089
:1038300003F010FC002003F0FBFB002003F0F8FB7A
:10384000002003F0F5FB002003F0F2FB002003F062
:10385000EFFB002003F0ECFB002003F0E9FB00206D
:1038600003F0E6FB002003F0E3FB002003F0E0FBA5
:10387000002003F0DDFB002003F0DAFB002003F062
:10388000D7FB002003F0D4FB002003F0D1FB002085
:1038900003F0CEFBE02003F0DDFB162003F0C8FBB5
:1038A000002003F0C5FB1C2003F0C2FB002003F046
:1038B000BFFB212003F0BCFB002003F0B9FB362046
:1038C00003F0B6FB002003F0B3FB462003F0B0FB8F
:1038D000002003F0ADFB522003F0AAFB002003F010
:1038E000A7FB642003F0A4FB002003F0A1FB7A20D7
:1038F00003F09EFB002003F09BFB8B2003F098FB62
:10390000002003F095FB992003F092FB002003F0C8
:103910008FFBA82003F08CFB002003F089FBB9206B
:1039200003F086FB002003F083FBC42003F080FB40
:10393000002003F07DFBCA2003F07AFB002003F097
:1039400077FBD22003F074FB002003F071FBD92039
:1039500003F06EFB002003F06BFBE02003F068FB3C
:10396000002003F065FBF32003F062FB002003F06E
:103970005FFBE12003F06EFB162003F059FB0020F3
:1039800003F056FB1C2003F053FB002003F050FB18
:10399000222003F04DFB002003F04AFB362003F009
:1039A00047FB002003F044FB452003F041FB0020CF
:1039B00003F03EFB522003F03BFB002003F038FBFA
:1039C000642003F035FB002003F032FB7A2003F083
:1039D0002FFB002003F02CFB8B2003F029FB0020A1
:1039E00003F026FB992003F023FB002003F020FBCB
:1039F000A82003F01DFB002003F01AFBB92003F000
:103A000017FB002003F014FBC42003F011FB00207F
:103A100003F00EFBCA2003F00BFB002003F008FBB1
:103A2000D22003F005FB002003F002FBD82003F0B6
:103A3000FFFA002003F0FCFAE02003F0F9FA00207E
:103A400003F0F6FAF32003F0F3FA002003F0F0FAA3
:103A5000E22003F0FFFA052003F0EAFA002003F069
:103A6000E7FA0B2003F0E4FA002003F0E1FA1B2050
:103A700003F0DEFA002003F0DBFA342003F0D8FA7A
:103A8000002003F0D5FA442003F0D2FA002003F01E
:103A9000CFFA4F2003F0CCFA002003F0C9FA6120DE
:103AA00003F0C6FA002003F0C3FA792003F0C0FA4D
:103AB000002003F0BDFA882003F0BAFA002003F0DA
:103AC000B7FA972003F0B4FA002003F0B1FAA62069
:103AD00003F0AEFA002003F0ABFAB72003F0A8FA27
:103AE000002003F0A5FAC22003F0A2FA002003F0A0
:103AF0009FFAC72003F09CFA002003F099FAD12026
:103B000003F096FA002003F093FAD62003F090FA1F
:103B1000002003F08DFADD2003F08AFA002003F084
:103B200087FAF32003F084FA002003F081FAE320FF
:103B300003F090FA052003F07BFA002003F078FAF6
:103B40000A2003F075FA002003F072FA1C2003F03B
:103B50006FFA002000E0FDE203F06AFA332003F080
:103B600067FA002003F064FA442003F061FA0020B1
:103B700003F05EFA502003F05BFA002003F058FADD
:103B8000622003F055FA002003F052FA782003F087
:103B90004FFA002003F04CFA882003F049FA002085
:103BA00003F046FA972003F043FA002003F040FAAE
:103BB000A62003F03DFA002003F03AFAB72003F004
:103BC00037FA002003F034FAC22003F031FA002063
:103BD00003F02EFAC72003F02BFA002003F028FA96
:103BE000D12003F025FA002003F022FAD52003F0BB
:103BF0001FFA002003F01CFADD2003F019FA002060
:103C000003F016FAF32003F013FA002003F010FA81
:103C1000E42003F01FFA012003F00AFA002003F069
:103C200007FA012003F004FA002003F001FA022051
:103C300003F0FEF9002003F0FBF92A2003F0F8F965
:103C4000002003F0F5F93C2003F0F2F9002003F026
:103C5000EFF94B2003F0ECF9002003F0E9F95D20C7
:103C600003F0E6F9002003F0E3F9742003F0E0F933
:103C7000002003F0DDF9842003F0DAF9002003F0DE
:103C8000D7F9932003F0D4F9002003F0D1F9A22052
:103C900003F0CEF9002003F0CBF9B32003F0C8F90C
:103CA000002003F0C5F9BE2003F0C2F9002003F0A4
:103CB000BFF9C42003F0BCF9002003F0B9F9CD200E
:103CC00003F0B6F9002003F0B3F9D32003F0B0F904
:103CD000002003F0ADF9DD2003F0AAF9002003F085
:103CE000A7F9F32003F0A4F9002003F0A1F9E520DF
:103CF00003F0B0F9002003F09BF9002003F098F9DD
:103D0000002003F095F9002003F092F9022003F05F
:103D10008FF9002003F08CF9292003F089F90020A5
:103D200003F086F93C2003F083F9002003F080F9CA
:103D30004B2003F07DF9002003F07AF95D2003F0B9
:103D400077F9002003F074F9742003F071F9002072
:103D500003F06EF9842003F06BF9002003F068F99A
:103D6000932003F065F9002003F062F9A22003F02C
:103D70005FF9002003F05CF9B32003F059F900204B
:103D800003F056F9BE2003F053F9002003F050F978
:103D9000C42003F04DF9002003F04AF9CD2003F0D0
:103DA00047F9002003F044F9D32003F041F9002043
:103DB00003F03EF9DC2003F03BF9002003F038F972
:103DC000F32003F035F9002003F032F9E62003F088
:103DD00041F9112003F02CF9002003F029F93420D7
:103DE00003F026F9002003F023F9562003F020F910
:103DF000002003F01DF9762003F01AF9002003F0EB
:103E000017F9772003F014F9002003F011F9662068
:103E100003F00EF9002003F00BF9882003F008F9F5
:103E2000002003F005F9992003F002F9002003F0C7
:103E3000FFF8BB2003F0FCF8002003F0F9F899200C
:103E400003F0F6F8002003F0F3F8662003F0F0F832
:103E5000002003F0EDF8552003F0EAF8002003F00D
:103E6000E7F8552003F0E4F8002003F0E1F84520DE
:103E700003F0DEF8002003F0DBF8432003F0D8F86D
:103E8000002003F0D5F8442003F0D2F8002003F01E
:103E9000CFF8E72003F0DEF8322003F0C9F8002065
:103EA00003F0C6F8552003F0C3F8002003F0C0F873
:103EB000762003F0BDF8002003F0BAF8662003F086
:103EC000B7F8002003F0B4F8672003F0B1F8002041
:103ED00003F0AEF8672003F0ABF8002003F0A8F879
:103EE000872003F0A5F8002003F0A2F8992003F042
:103EF0009FF8002003F09CF8BB2003F099F8002005
:103F000003F096F8992003F093F8002003F090F85E
:103F1000772003F08DF8002003F08AF8442003F0A6
:103F200087F8002003F084F8562003F081F8002081
:103F300003F07EF8232003F07BF8002003F078F8EC
:103F4000332003F075F8002003F072F8452003F0E9
:103F50006FF8002003F06CF8E82003F07BF80020F5
:103F600003F066F8002003F063F8992003F060F88E
:103F7000002003F05DF8872003F05AF8002003F0DA
:103F800057F8882003F054F8002003F051F8772008
:103F900003F04EF8002003F04BF8662003F048F8D9
:103FA000002003F045F8882003F042F8002003F0D9
:103FB0003FF8AA2003F03CF8002003F039F8BB20BA
:103FC00003F036F8002003F033F8992003F030F8BE
:103FD000002003F02DF8662003F02AF8002003F0FB
:103FE00027F8552003F024F8002003F021F855208D
:103FF00003F01EF8002003F01BF8442003F018F82B
:10400000002003F015F8442003F012F8002003F01C
:104010000FF8552003F00CF8002003F009F8E92010
:1040200003F018F8AA2003F003F8002003F000F8CA
:10403000002002F0FDFF002002F0FAFF002003F054
:1040400009F8AA2002F0F4FFCF2003F003F80020C3
:1040500002F0EEFF002002F0EBFF002002F0E8FF8C
:10406000002002F0E5FF002002F0E2FF002002F055
:10407000DFFF002002F0DCFF002002F0D9FF00206B
:1040800002F0D6FF002002F0D3FF002002F0D0FFA4
:10409000002002F0CDFF002002F0CAFF002002F055
:1040A000C7FF002002F0C4FF002002F0C1FF002083
:1040B00002F0BEFFF02002F0CDFF002002F0B8FFBA
:1040C000502002F0B5FF002002F0B2FF002002F005
:1040D000AFFF002002F0ACFFF32002F0BBFF002096
:1040E00002F0A6FFF92002F0B5FF062002F0A0FFC3
:1040F000102002F09DFF292002F09AFF002002F01C
:1041000097FF3A2002F0A6FF552002F091FF112000
:1041100002F0A0FF642009F02BFE292002F09AFF94
:10412000352002F097FF002002F082FF512002F0BC
:1041300091FFFF2002F07CFF532002F08BFF2C2028
:1041400002F076FF552002F085FF822002F070FF1A
:104150002C20FCE3A8427DD14FF470445521204629
:1041600002F090FF651CAA21284602F08BFFA61CD6
:104170005221304602F086FFE71C0821384602F043
:1041800081FF4FF204080121404602F07BFF0D2120
:104190004FF4304002F076FF0D214BF2010002F0A7
:1041A00071FF0D214BF2020002F06CFF4FF4364913
:1041B0003421484602F066FF34214BF2016002F0E0
:1041C00061FF34214BF2026002F05CFF4FF4314A90
:1041D0000D21504602F056FF4BF2011B0D215846AF
:1041E00002F050FF0D214BF2021002F04BFF342180
:1041F0004FF4374002F046FF34214BF2017002F0D9
:1042000041FF34214BF2027002F03CFF00214FF4D9
:10421000324002F037FF00214BF2012002F032FF62
:1042200000214BF2022002F02DFF24214FF43840F0
:1042300002F028FF24214BF6010002F023FF242185
:104240004BF6020002F01EFF01214FF43F4002F046
:1042500019FF00E0FEE30F214FF4334002F012FF9C
:104260000F214BF2013002F00DFF0F214BF2023013
:1042700002F008FF34214FF4394002F003FF3421EB
:104280004BF6011002F0FEFE34214BF6021002F054
:10429000F9FE08214FF4354002F0F4FE08214BF2FC
:1042A000015002F0EFFE08214BF2025002F0EAFE4C
:1042B00003214FF4424002F0E5FE24214FF43A403E
:1042C00002F0E0FE24214BF6012002F0DBFE242167
:1042D0004BF6022002F0D6FE00214FF43C4002F0E3
:1042E000D1FE78214BF6014002F0CCFE00214BF6C6
:1042F000024002F0C7FE00214FF43D4002F0C2FE32
:1043000078214BF6015002F0BDFE00214BF6025021
:1043100002F0B8FE00214FF43E4002F0B3FE6421EB
:104320004BF6016002F0AEFE00214FF4514002F066
:10433000A9FE33214DF2011002F0A4FE00214DF23E
:10434000021002F09FFE34214DF2031002F09AFE9B
:1043500000214DF2041002F095FE3A214DF20510B5
:1043600002F090FE00214DF2061002F08BFE4A2171
:104370004DF2071002F086FE00214DF2081002F007
:1043800081FE5C214DF2091002F07CFE00214DF20D
:104390000A1002F077FE81214DF20B1002F072FE3E
:1043A00000214DF20C1002F06DFEA6214DF20D1011
:1043B00002F068FE00214DF20E1002F063FEE521CE
:1043C0004DF20F1002F05EFE01214DF2101002F0CE
:1043D00059FE13214DF2111002F054FE01214DF24D
:1043E000121002F04FFE54214DF2131002F04AFE5B
:1043F00001214DF2141002F045FE82214DF21510FC
:1044000002F040FE01214DF2161002F03BFECA21DF
:104410004DF2171002F036FE02214DF2181002F094
:1044200031FE00214DF2191002F02CFE02214DF256
:104430001A1002F027FE01214DF21B1002F022FE9D
:1044400002214DF21C1002F01DFE34214DF21D1010
:1044500002F018FE02214DF21E1002F013FE672139
:104460004DF21F1002F00EFE02214DF2201002F05C
:1044700009FE84214DF2211002F004FE02214DF2CA
:10448000221002F0FFFDA4214DF2231002F0FAFDEC
:1044900002214DF2241002F0F5FDB7214DF2251056
:1044A00002F0F0FD02214DF2261002F0EBFDCF21CB
:1044B0004DF2271002F0E6FD02214DF2281002F025
:1044C000E1FDDE214DF2291002F0DCFD02214DF26A
:1044D0002A1002F0D7FDF2214DF22B1002F0D2FD8E
:1044E00002214DF22C1002F0CDFDFE214DF22D10D7
:1044F00002F0C8FD03214DF22E1002F0C3FD102181
:104500004DF22F1002F0BEFD03214DF2301002F0EB
:10451000B9FD33214DF2311002F0B4FD03214DF20B
:10452000321002F0AFFD6D214DF2331002F0AAFD02
:1045300000214FF4524002F0A5FD33214DF201203D
:1045400002F0A0FD00214DF2022002F09BFD34217B
:104550004DF2032002F096FD00214DF2042002F0FE
:1045600091FD3A214DF2052002F08CFD00214DF223
:10457000062002F087FD4A214DF2072002F082FD5D
:1045800000214DF2082002F07DFD5C214DF2092052
:1045900002F078FD00214DF20A2002F073FD812126
:1045A0004DF20B2002F06EFD00214DF20C2002F0C6
:1045B00069FDA6214DF20D2002F064FD00214DF2AF
:1045C0000E2002F05FFDE5214DF20F2002F05AFDB2
:1045D00001214DF2102002F055FD13214DF2112062
:1045E00002F050FD01214DF2122002F04BFD54214A
:1045F0004DF2132002F046FD01214DF2142002F08D
:1046000041FD82214DF2152002F03CFD01214DF2C9
:10461000162002F037FDCA214DF2172002F032FDBC
:1046200002214DF2182002F02DFD00214DF219203B
:1046300002F028FD02214DF21A2002F023FD012193
:104640004DF21B2002F01EFD02214DF21C2002F053
:1046500019FD34214DF21D2002F014FD02214DF20E
:104660001E2002F00FFD67214DF21F2002F00AFD0F
:1046700002214DF2202002F005FD84214DF221207F
:1046800002F000FD02214DF2222002F0FBFCA421E9
:104690004DF2232002F0F6FC02214DF2242002F01C
:1046A000F1FCB7214DF2252002F0ECFC02214DF285
:1046B000262002F0E7FCCF214DF2272002F0E2FC99
:1046C00002214DF2282002F0DDFCDE214DF22920EE
:1046D00002F0D8FC02214DF22A2002F0D3FCF22194
:1046E0004DF22B2002F0CEFC02214DF22C2002F0E4
:1046F000C9FCFE214DF22D2002F0C4FC03214DF235
:104700002E2002F0BFFC10214DF22F2002F0BAFC47
:1047100003214DF2302002F0B5FC33214DF231205F
:1047200002F0B0FC03214DF2322002F0ABFC6D210F
:104730004DF2332002F0A6FC00214FF4534002F06A
:10474000A1FC33214DF2013002F09CFC00214DF21E
:10475000023002F097FC34214DF2033002F092FC5B
:1047600000214DF2043002F08DFC3A214DF205306B
:1047700002F088FC00214DF2063002F083FC4A2151
:104780004DF2073002F07EFC00214DF2083002F0BD
:1047900079FC5C214DF2093002F074FC00214DF2ED
:1047A0000A3002F06FFC81214DF20B3002F06AFCFE
:1047B00000214DF20C3002F065FCA6214DF20D30C7
:1047C00002F060FC00214DF20E3002F05BFCE521AE
:1047D0004DF20F3002F056FC01214DF2103002F084
:1047E00051FC13214DF2113002F04CFC01214DF22D
:1047F000123002F047FC54214DF2133002F042FC1B
:1048000001214DF2143002F03DFC82214DF21530B1
:1048100002F038FC01214DF2163002F033FCCA21BF
:104820004DF2173002F02EFC02214DF2183002F04A
:1048300029FC00214DF2193002F024FC02214DF236
:104840001A3002F01FFC01214DF21B3002F01AFC5D
:1048500002214DF21C3002F015FC34214DF21D30C6
:1048600002F010FC02214DF21E3002F00BFC672119
:104870004DF21F3002F006FC02214DF2203002F012
:1048800001FC84214DF2213002F0FCFB02214DF2AB
:10489000223002F0F7FBA4214DF2233002F0F2FBAC
:1048A00002214DF2243002F0EDFBB7214DF225300C
:1048B00002F0E8FB02214DF2263002F0E3FBCF21AB
:1048C0004DF2273002F0DEFB02214DF2283002F0DB
:1048D000D9FBDE214DF2293002F0D4FB02214DF24A
:1048E0002A3002F0CFFBF2214DF22B3002F0CAFB4E
:1048F00002214DF22C3002F0C5FBFE214DF22D308D
:1049000002F0C0FB03214DF22E3002F0BBFB102160
:104910004DF22F3002F0B6FB03214DF2303002F0A1
:10492000B1FB33214DF2313002F0ACFB03214DF2EB
:10493000323002F0A7FB6D214DF2333002F0A2FBC2
:1049400000214FF4544002F09DFB332100E080E34E
:104950004DF2014002F096FB00214DF2024002F0C0
:1049600091FB34214DF2034002F08CFB00214DF20B
:10497000044002F087FB3A214DF2054002F082FB31
:1049800000214DF2064002F07DFB4A214DF2074026
:1049900002F078FB00214DF2084002F073FB5C212D
:1049A0004DF2094002F06EFB00214DF20A4002F088
:1049B00069FB81214DF20B4002F064FB00214DF2B6
:1049C0000C4002F05FFBA6214DF20D4002F05AFBB5
:1049D00000214DF20E4002F055FBE5214DF20F4053
:1049E00002F050FB01214DF2104002F04BFB13216D
:1049F0004DF2114002F046FB01214DF2124002F04F
:104A000041FB54214DF2134002F03CFB01214DF2D9
:104A1000144002F037FB82214DF2154002F032FBC8
:104A200001214DF2164002F02DFBCA214DF2174034
:104A300002F028FB02214DF2184002F023FB002176
:104A40004DF2194002F01EFB02214DF21A4002F015
:104A500019FB00E001E301214DF21B4002F012FBC3
:104A600002214DF21C4002F00DFB34214DF21D409D
:104A700002F008FB02214DF21E4002F003FB672109
:104A80004DF21F4002F0FEFA02214DF2204002F0EA
:104A9000F9FA84214DF2214002F0F4FA02214DF29C
:104AA000224002F0EFFAA4214DF2234002F0EAFA8C
:104AB00002214DF2244002F0E5FAB7214DF22540E3
:104AC00002F0E0FA02214DF2264002F0DBFACF219B
:104AD0004DF2274002F0D6FA02214DF2284002F0B2
:104AE000D1FADE214DF2294002F0CCFA02214DF23A
:104AF0002A4002F0C7FAF2214DF22B4002F0C2FA2E
:104B000002214DF22C4002F0BDFAFE214DF22D4063
:104B100002F0B8FA03214DF22E4002F0B3FA102150
:104B20004DF22F4002F0AEFA03214DF2304002F078
:104B3000A9FA33214DF2314002F0A4FA03214DF2DB
:104B4000324002F09FFA6D214DF2334002F09AFAA2
:104B500000214FF4554002F095FA33214DF20150F7
:104B600002F090FA00214DF2025002F08BFA34214B
:104B70004DF2035002F086FA00214DF2045002F08B
:104B800081FA3A214DF2055002F07CFA00214DF2F3
:104B9000065002F077FA4A214DF2075002F072FAFD
:104BA00000214DF2085002F06DFA5C214DF20950DF
:104BB00002F068FA00214DF20A5002F063FA8121F6
:104BC0004DF20B5002F05EFA00214DF20C5002F053
:104BD00059FAA6214DF20D5002F054FA00214DF27F
:104BE0000E5002F04FFAE5214DF20F5002F04AFA52
:104BF00001214DF2105002F045FA13214DF21150EF
:104C000002F040FA01214DF2125002F03BFA542119
:104C10004DF2135002F036FA01214DF2145002F019
:104C200031FA82214DF2155002F02CFA01214DF299
:104C3000165002F027FACA214DF2175002F022FA5C
:104C400002214DF2185002F01DFA00214DF21950C8
:104C500002F018FA02214DF21A5002F013FA012163
:104C60004DF21B5002F00EFA02214DF21C5002F0E0
:104C700009FA34214DF21D5002F004FA02214DF2DE
:104C80001E5002F0FFF967214DF21F5002F0FAF9B1
:104C900002214DF2205002F0F5F984214DF221500D
:104CA00002F0F0F902214DF2225002F0EBF9A421BA
:104CB0004DF2235002F0E6F902214DF2245002F0A9
:104CC000E1F9B7214DF2255002F0DCF902214DF255
:104CD000265002F0D7F9CF214DF2275002F0D2F939
:104CE00002214DF2285002F0CDF9DE214DF229507B
:104CF00002F0C8F902214DF22A5002F0C3F9F22164
:104D00004DF22B5002F0BEF902214DF22C5002F070
:104D1000B9F9FE214DF22D5002F0B4F903214DF204
:104D20002E5002F0AFF910214DF22F5002F0AAF9E7
:104D300003214DF2305002F0A5F933214DF23150EC
:104D400002F0A0F903214DF2325002F09BF96D21DF
:104D50004DF2335002F096F900214FF4564002F024
:104D600091F933214DF2016002F08CF900214DF2EE
:104D7000026002F087F934214DF2036002F082F9FB
:104D800000214DF2046002F07DF93A214DF20560F8
:104D900002F078F900214DF2066002F073F94A2121
:104DA0004DF2076002F06EF900214DF2086002F04A
:104DB00069F95C214DF2096002F064F900214DF2BD
:104DC0000A6002F05FF981214DF20B6002F05AF99E
:104DD00000214DF20C6002F055F9A6214DF20D6054
:104DE00002F050F900214DF20E6002F04BF9E5217E
:104DF0004DF20F6002F046F901214DF2106002F011
:104E000041F913214DF2116002F03CF901214DF2FC
:104E1000126002F037F954214DF2136002F032F9BA
:104E200001214DF2146002F02DF982214DF215603E
:104E300002F028F901214DF2166002F023F9CA218F
:104E40004DF2176002F01EF902214DF2186002F0D7
:104E500019F900214DF2196002F014F902214DF206
:104E60001A6002F00FF901214DF21B6002F00AF9FD
:104E700002214DF21C6002F005F934214DF21D6053
:104E800002F000F902214DF21E6002F0FBF86721EA
:104E90004DF21F6002F0F6F802214DF2206002F0A0
:104EA000F1F884214DF2216002F0ECF802214DF27C
:104EB000226002F0E7F8A4214DF2236002F0E2F84C
:104EC00002214DF2246002F0DDF8B7214DF2256099
:104ED00002F0D8F802214DF2266002F0D3F8CF217B
:104EE0004DF2276002F0CEF802214DF2286002F068
:104EF000C9F8DE214DF2296002F0C4F802214DF21A
:104F00002A6002F0BFF8F2214DF22B6002F0BAF8ED
:104F100002214DF22C6002F0B5F8FE214DF22D6019
:104F200002F0B0F803214DF22E6002F0ABF8102130
:104F30004DF22F6002F0A6F803214DF2306002F02E
:104F4000A1F833214DF2316002F09CF803214DF2BB
:104F5000326002F097F86D214DF2336002F092F862
:104F60005521204602F08EF8AA21284602F08AF840
:104F70005221304602F086F80821384602F082F8C5
:104F80000021404602F07EF8CC21504602F07AF82B
:104F90000021584602F076F80521484602F072F8E2
:104FA00070214FF4374002F06DF870214BF2017020
:104FB00002F068F801214FF4384002F063F8032151
:104FC0004BF6010002F05EF803214BF6020002F0FE
:104FD00059F803214BF6030002F054F802214FF474
:104FE0003C4002F04FF800214BF6014002F04AF835
:104FF00000214BF6024002F045F8D0214FF4494021
:1050000002F040F802214CF6011002F03BF850216A
:105010004CF6021002F036F850214CF6031002F064
:1050200031F850214CF6041002F02CF800214FF416
:10503000545002F027F855214FF4685002F022F83E
:105040004FF4885002F006F8782008F0B3FE4FF4D1
:10505000245001F0FFFF01F04ABAA0F513414FF4CC
:1050600080774FF4E06940F2022A40F23F144FF497
:10507000274625392AD04FF4017B40F20775C91E17
:105080007ED04FF4887608317BD011397AD0A0F5E4
:10509000A841083977D0A0F5A8514FF440760539DA
:1050A00072D0B1F5204170D0B1F580516ED0A0F52D
:1050B000094189396BD0A0F58A41313968D0091F7F
:1050C00067D0A0F5C85163397DD0C4E747F6F00139
:1050D000E52001F0D7FF3946012001F0D3FF494612
:1050E000022001F0CFFF41F23001032001F0CAFF9E
:1050F0000021042001F0C6FF5146082001F0C2FF44
:105100000021092001F0BEFF00210A2001F0BAFFB2
:1051100000210C2001F0B6FF00210D2001F0B2FFAC
:1051200000210F2001F0AEFF0021102001F0AAFFA6
:105130000721112001F0A6FF0021122001F0A2FF9B
:105140000021132001F09EFF0021072001F09AFFAB
:1051500041F29061102001F095FF40F227211120CB
:1051600001F090FF9D21122001F08CFF4FF4C851F7
:10517000132001F087FF2521292001F083FF09E09A
:105180007CE036E1D9E1ACE247E3FDE3FDE3FDE39A
:10519000FDE3FDE30D212B2001F074FF07213020FA
:1051A00001F070FF40F20331312001F06BFF032169
:1051B000322001F067FF40F20621352001F062FF46
:1051C0000821362000E0FDE301F05CFF40F20641DB
:1051D000372001F057FF4FF44171382001F052FFA2
:1051E0000721392001F04EFF40F202613C2001F01E
:1051F00049FF08213D2001F045FF0021502001F02A
:1052000041FFEF21512001F03DFF0021522001F02C
:1052100039FF2146532001F035FF3146602001F06F
:1052200031FF0121612001F02DFF00216A2001F0F2
:1052300029FF0021802001F025FF0021812001F0BD
:1052400021FF0021822001F01DFF0021832001F0B9
:1052500019FF0021842001F015FF0021852001F0B5
:1052600011FF1021902001F00DFF4FF4C06192203A
:1052700001F008FF40F233110720FDE341F28F01F6
:10528000EC2001F0FFFE41F23421EF2001F0FAFEA4
:105290003946012001F0F6FE4946022001F0F2FEF7
:1052A00041F23001032001F0EDFE0021042001F065
:1052B000E9FE5146082001F0E5FE0021092001F039
:1052C000E1FE00210A2001F0DDFE01210C2001F0A9
:1052D000D9FE00210D2001F0D5FE00210F2001F0A4
:1052E000D1FE0021102001F0CDFE0721112001F098
:1052F000C9FE0021122001F0C5FE0021132001F09B
:10530000C1FE0121072001F0BDFE322008F030FD72
:1053100041F29041102001F0B5FE40F2272111200A
:1053200001F0B0FE322008F023FD8A21122001F0A6
:10533000A9FE322008F01CFD4FF4D051132001F0DB
:10534000A1FE0621292001F09DFE0D212B2001F058
:1053500099FE322008F00CFD0021202001F092FE81
:105360000021212001F08EFE322008F001FD0021F5
:10537000302001F087FE40F20461312001F082FE0E
:1053800040F20531322001F07DFE0021352001F090
:1053900079FE40F60941362001F074FE5946372067
:1053A00001F070FE40F20131382001F06BFE294619
:1053B000392001F067FE00213C2001F063FE40F639
:1053C0000A213D2001F05EFE322008F0D1FC0021D0
:1053D000502001F057FEEF21512001F053FE002133
:1053E000522001F04FFE2146532001F04BFE314682
:1053F0004CE10021084601F045FE3946012001F04C
:1054000041FE4946022001F03DFE41F230010320F9
:1054100001F038FE0021042001F034FE514608203E
:1054200001F030FE0021092001F02CFE00210A20AD
:1054300001F028FE01210C2001F024FE00210D20A6
:1054400001F020FE00210F2001F01CFE322008F0A8
:105450008FFC40F20111072001F014FE322008F009
:1054600087FC4FF48651102001F00CFE072111201B
:1054700001F008FE3146122001F004FE4FF43061C5
:10548000132001F0FFFD0021292001F0FBFD44F273
:1054900010012B2001F0F6FD0021502001F0F2FD5B
:1054A000EF21512001F0EEFD0021522001F0EAFD34
:1054B0002146532001F0E6FD4FF41C51602001F01D
:1054C000E1FD0121612001F0DDFD00216A2001F0F4
:1054D000D9FD0021802001F0D5FD0021812001F0BF
:1054E000D1FD0021822001F0CDFD0021832001F0BB
:1054F000C9FD0021842001F0C5FD0021852001F0B7
:10550000C1FD1021902001F0BDFD0021922001F08D
:10551000B9FD0121932001F0B5FD3146952001F040
:10552000B1FD0021972001F0ADFD0021982001F090
:10553000A9FD40F27311072080E341F21401E72036
:1055400001F0A0FD3946012001F09CFD4FF40071EF
:10555000022001F097FD41F23801032001F092FD95
:105560005146082001F08EFD0021092001F08AFD3E
:1055700000210A2001F086FD00210C2001F082FDAF
:1055800000210D2001F07EFD00210F2001F07AFDA9
:105590000021102001F076FD0721112001F072FD9D
:1055A0000021122001F06EFD0021132001F06AFDA0
:1055B000C82008F0DDFB41F29061102001F062FD8F
:1055C00040F22721112001F05DFD322008F0D0FBD0
:1055D0000C21122001F056FD322008F0C9FB4FF4D7
:1055E0000061132001F04EFD1121292001F04AFD38
:1055F0000B212B2001F046FD322008F0B9FB0021E1
:10560000202001F03FFD2146212001F03BFD00213B
:10561000302001F037FD4FF483763146312001F020
:1056200031FD0021322001F02DFD5946352001F0D9
:1056300029FD41F20A61362001F024FD2946372078
:1056400001F020FD3146382001F01CFD29463920AB
:1056500001F018FD40F202413C2001F013FD40F63C
:105660000F413D2001F00EFD0021502001F00AFD08
:10567000EF21512001F006FD0021522001F002FD32
:105680002146532001F0FEFC4FF41C51602001F034
:10569000F9FC0121612001F0F5FC00216A2001F0F4
:1056A000F1FC0021802001F0EDFC0021812001F0BF
:1056B000E9FC0021822001F0E5FC0021832001F0BB
:1056C000E1FC0021842001F0DDFC0021852001F0B7
:1056D000D9FC1021902001F0D5FC4FF4C06192203C
:1056E000FEE33946012001F0CDFC4946022001F0DD
:1056F000C9FC41F23001032001F0C4FC0021042068
:1057000001F0C0FC40F20721082001F0BBFC0021A1
:10571000092001F0B7FC00210A2001F0B3FC0021B0
:105720000C2001F0AFFC00210D2001F0ABFC0021AA
:105730000F2001F0A7FC142008F01AFB41F2B06121
:10574000102001F09FFC0121112001F09BFC0121A0
:10575000172001F097FC4FF49C71122001F092FC8D
:105760004FF40061132001F08DFC0921292001F084
:1057700089FC09212A2001F085FC0021A42001F0E8
:1057800081FC0021502001F07DFCEF21512001F02F
:1057900079FC0021522001F075FC2146532001F0D4
:1057A00071FC4FF41C51602001F06CFC0121612060
:1057B00001F068FC00216A2001F064FC00218020D7
:1057C00001F060FC0021812001F05CFC00218220BE
:1057D00001F058FC0021832001F054FC00218420BA
:1057E00001F050FC0021852001F04CFC1321902099
:1057F00001F048FC0021922001F044FC0321932099
:1058000001F040FC3146952001F03CFC40F2731160
:10581000072001F037FC322010E10021072001F0C1
:1058200031FC322008F0A4FA4FF48E71122001F0FE
:1058300029FC0121A42001F025FC0F21082001F002
:1058400021FC08210A2001F01DFC08210D2001F097
:1058500019FCA8462946302001F014FC072131200C
:1058600001F010FC40F20361322001F00BFC4D46C8
:105870004946332001F006FC5146342001F002FC79
:105880000221352001F0FEFB41F60F71362001F0B8
:10589000F9FB4146372001F0F5FB0021382001F0EB
:1058A000F1FB0021392001F0EDFB41463A2001F0E7
:1058B000E9FB00213B2001F0E5FB07213C2001F042
:1058C000E1FB00213D2001F0DDFB322008F050FA21
:1058D0000121072001F0D6FB0121172001F0D2FBA6
:1058E000322008F045FA4FF4BD51102001F0CAFBF8
:1058F00040F21721112001F0C5FB4FF48F711220E7
:1059000001F0C0FB4FF47061132001F0BBFB0021DC
:105910002A2001F0B7FB0A21292001F0B3FB4FF444
:105920009F71122001F0AEFB0021502001F0AAFB74
:10593000EF21512001F0A6FB0021522001F0A2FB33
:105940002146532001F09EFB4FF41C51602001F0D2
:1059500099FB0121612001F095FB00216A2001F0F3
:1059600091FB0021802001F08DFB0021812001F0BE
:1059700089FB0021822001F085FB0021832001F0BA
:1059800081FB0021842004E05BE058E11FE2D2E2C9
:1059900086E301F077FB0021852001F073FB1321E2
:1059A000902001F06FFB3146922001F06BFB052146
:1059B000932001F067FB0021952001F063FB00219B
:1059C000972000E0FEE301F05DFB0021982001F04C
:1059D00059FB3946012001F055FB2946022001F010
:1059E00051FB41F23801032001F04CFB002104205F
:1059F00001F048FB00210C2001F044FB00210F20A6
:105A000001F040FB0021202001F03CFB002121207F
:105A100001F038FB2121072001F034FB142008F0AD
:105A2000A7F96121072001F02DFB142008F0A0F94F
:105A300040F27311072001F025FB142008F098F9BB
:105A40002DE30021084601F01DFB0021084601F06E
:105A500019FB0021084601F015FB0021084601F062
:105A600011FB0121A42001F00DFB142008F080F9A6
:105A70004FF41C55294600E0DCE0602001F002FBF9
:105A800056465146082001F0FDFA4FF405713020CA
:105A900001F0F8FA43F21571312001F0F3FA40F207
:105AA0000461322001F0EEFA40F61661332001F075
:105AB000E9FA42F21121342001F0E4FA4FF4A8513E
:105AC000352001F0DFFA48F20751362001F0DAFA0A
:105AD00041F20741372001F0D5FA41F20341382065
