:020000040800F2
:10000000C0B00020350200083D0200083F02000891
:1000100041020008430200084502000800000000F9
:10002000000000000000000000000000470200087F
:100030004902000800000000C302000855A400089F
:100040004F0200084F0200084F020008758C00089C
:100050004F0200084F0200084F0200084F0200083C
:100060004F0200084F0200084F0200084F0200082C
:100070004F0200084F0200084F0200084F0200081C
:100080004F0200084F0200084F0200084F0200080C
:10009000D5B300084F0200084F0200084F020008C5
:1000A0004F0200084F0200084F0200084F020008EC
:1000B000C5A400084DA500084F0200084F02000823
:1000C0004F0200084F0200084F0200084F020008CC
:1000D0004F020008E5B000084F0200084F02000878
:1000E0004F0200084F02000889B200084F020008C2
:1000F0004F0200084F0200084F0200084F0200089C
:100100004F0200084F02000881A500084F020008B6
:100110004F0200084F0200084F0200084F0200087B
:100120004F0200084F0200084F0200084F0200086B
:1001300000F002F800F06EF80AA090E8000C82448B
:100140008344AAF10107DA4501D100F063F8AFF268
:10015000090EBAE80F0013F0010F18BFFB1A43F0A5
:100160000103184730840100508401000A444FF015
:10017000000C10F8013B13F0070408BF10F8014B06
:100180001D1108BF10F8015B641E05D010F8016B4B
:10019000641E01F8016BF9D113F0080F1EBF10F8AF
:1001A000014BAD1C0C1B09D16D1E58BF01F801CBD2
:1001B000FAD505E014F8016B01F8016B6D1EF9D555
:1001C0009142D6D37047000000230024002500266A
:1001D000103A28BF78C1FBD8520728BF30C148BFAA
:1001E0000B607047642900F0AB81782900F0E4814E
:1001F000732900F02C85002070471FB500F0B8FF70
:1002000004000020002114F0A9FB401C60601FBD09
:1002100010B510BD00F078FF1146FFF7EEFF10F0AB
:10022000F9FF00F09FFF03B4FFF7F2FF03BC0BF0F0
:100230001CFD00000948804709480047FEE7FEE72B
:10024000FEE7FEE7FEE7FEE7FEE7FEE7FEE7FEE786
:1002500004480549054A064B7047000075A400088C
:1002600031010008C0AA0020C0B00020C0AC0020AE
:10027000C0AC0020EFF3108072B6704780F3108896
:100280007047204C204D25604FF0000484F309880E
:100290001E4C4FF0010525701D4C4FF08055256018
:1002A00062B6FEE730B41A4C4FF08055256030BC82
:1002B000704730B4164C4FF08055256030BC704705
:1002C00000BF72B6EFF3098028B1203880E8F00F44
:1002D00010490968086000B50F4880475DF804EBD5
:1002E0000E480F490A7802700A480E490A680260EF
:1002F000106890E8F00F203080F309884EF0040E6B
:1003000062B6704720ED00E00000FFFFDB00002038
:1003100004ED00E0F40000208D800008D8000020EB
:10032000D9000020FC000020704753EA020C00F0C6
:1003300069802DE9F04B4FF00006002B1FBFB3FA88
:1003400083F503FA05F424FA05F65E4012BF16435E
:10035000B2FA82F502FA05F4C5F120051EBF22FAB1
:1003600005FC44EA0C04203556EA044C4FEA1444D8
:1003700018BF641C4FF000084FF00009904271EB69
:10038000030C39D3002919BFB1FA81F701FA07F636
:10039000B0FA80F700FA07F6C7F120071EBF20FA6F
:1003A00007FC46EA0C062037B6FBF4FCA7EB050772
:1003B000103F07F01F0BCBF120060CFA0BFB2CFAB9
:1003C00006F644BFB3460026202FA4BF5E464FF07A
:1003D000000B5BEA060C08BF4FF0010B19EB0B0991
:1003E000ABFB027C48EB0608C01B06FB02CC0BFBF8
:1003F00003CC71EB0C01C1E70B460246414648466F
:10040000BDE8F08B13B54FF000004FF00001AFF3E3
:100410000080BDE81C40704710B54C1084EA5304BE
:1004200004D54042C1F1000138BF491E1B4204D52A
:100430005242C3F1000338BF5B1EFFF776FF14F092
:10044000804F04D04042C1F1000138BF491E14F072
:10045000004F04D05242C3F1000338BF5B1E10BDF1
:100460000FB4044910B503AA029800F0F5FB10BCC4
:100470005DF814FB340000200FB41CB5074B06AA2E
:100480007B4469460090059800F0B7FB0020694660
:1004900000F0C6FB1CBC5DF814FB00009D070000CB
:1004A00070B5044685690068C10601D5302600E0B4
:1004B0002026C00707D070BDD4E9012130469047FF
:1004C000206A401C20626D1EF6D570BD70B50446D2
:1004D00085690078C00707D170BDD4E901212020CB
:1004E0009047206A401C20626D1EF6D570BD70B525
:1004F0000C460546012A05D02878800600D5EA6911
:10050000002302E0012305E05B1C934202D2E05C81
:100510000028F9D1A869E618C01AA861286A184409
:1005200028622846FFF7BCFF04E0D5E9012114F852
:10053000010B9047B442F8D32846FFF7C7FF70BDC0
:100540002DE9F0410646002410687529314616A5AC
:1005500010D0AFF30080002802DA404213A507E074
:1005600031688A0701D512A502E0490704D511A513
:10057000012401E0AFF3008000210A2206F12407E4
:1005800009E0B0FBF2FCB0FBF2F302FB1C003030E0
:1005900078541846491C0028F3D123462A46304691
:1005A000BDE8F04100F0CBBA000000002D000000D3
:1005B0002B0000002000000070B504460D462146C7
:1005C0001068AFF300802188090502D50F4A7A44EC
:1005D00002E00E4A7A440E32002104F1240305E0C1
:1005E00000F00F060009965D5E54491C0028F7D103
:1005F00020780023000704D5702D02D009B1022312
:1006000011322046BDE8704000F099BA1A78010016
:100610002DE9F05F894604464FF0000ADFF824B167
:10062000FB44C0F820A02046E168884700287DD020
:10063000252806D0D4E901219047206A401C206279
:10064000F1E700255F462046E168884720280646F6
:1006500007DB312E05D2B81910F8200C08B105437C
:10066000F1E7A80701D525F00405C4F81CA0002770
:10067000C4F818A02A2E09D030460BF0EFFA38B390
:1006800004EB8708303EC8F8186019E059F8041BDD
:10069000204604EB87029161E1688847012F0646F6
:1006A00018D1E069002820DA25F020051DE0D8F8EF
:1006B000180000EB800006EB40003038C8F8180046
:1006C0002046E168884706460BF0C8FA0028EED1BC
:1006D000012F0AD02E2E08D12046E16888477F1CC2
:1006E0000646022F45F02005C4DBA069002803DA86
:1006F000404245F00105A061E80701D025F0100552
:10070000A6B1A6F14100192802D8203645F40065AB
:100710004A463146204625604D46FFF763FD60B1ED
:10072000012807D0ED1D25F0070000E007E000F1EB
:10073000080978E705F1040975E730467AE7206A89
:10074000BDE8F09FF07701000FB400B58DB010A99F
:10075000099000910B904FF0FF300A9000200C9010
:10076000064878440690064878446A4607900F99F0
:1007700009A800F097FA0DB05DF814FB5F050000C2
:10078000770500002DE9FF5F1D464FF0FF3B9146C6
:100790004FF000085F46D5E90146A96901987F1C22
:1007A0008847296A824688470028F6D1BAF1FF3F78
:1007B0000CD0002E24F4C06419DD600614D5BAF103
:1007C0002B0F09D0BAF12D0F0ED103E0584604B01B
:1007D000BDE8F09F44F48064A96901987F1C8847B4
:1007E000761E8246002E02DDBAF1300F03D0B9F139
:1007F000000F26D032E0A969761E01987F1C44F4D0
:1008000000748847002E824605DDBAF1780F06D0C5
:10081000BAF1580F03D0B9F1000F10D01EE0B9F1B2
:10082000000F02D0B9F1100F18D1A969761E0198F6
:100830007F1C24F4007488478246102002E00820C0
:1008400000E00A20814609E0A96908FB0908761E34
:1008500001987F1C44F4007488478246002E05DD11
:100860004946504600F00AFA0028EDDAE969019895
:100870008847A00502D46FF00100A8E7E00725D162
:10088000600613D5600502D5C8F1000000E04046BF
:1008900029680A1D2A600968220501D5087015E03B
:1008A000220701D5088011E008600FE02868011DCB
:1008B00029600068210502D580F8008006E0210744
:1008C00002D5A0F8008001E0C0F8008038467EE73D
:1008D00040EA010310B59B070FD1042A0DD310C8BD
:1008E00008C9121F9C42F8D020BA19BA884201D90F
:1008F000012010BD4FF0FF3010BD1AB1D30703D057
:10090000521C07E0002010BD10F8013B11F8014B0C
:100910001B1B07D110F8013B11F8014B1B1B01D128
:10092000921EF1D1184610BD40EA0103024630B5CF
:100930009B0710D14FF0013400E008C208C91D1B0D
:100940009D4315EAC41FF8D013F0FF0102F8011B04
:100950000DD01B0AF8E711F8013B002B02F8013B10
:1009600005D011F8013B002B02F8013BF3D130BD5B
:1009700010B5431C02E010F8011B71B18107FAD1D8
:100980004FF0013202C88C1A8C4314EAC211F9D01C
:10099000C01A0A0603D0C01E10BDC01A10BD0A043A
:1009A00001D0801E10BD0902FCD0401E10BD421EA9
:1009B00012F8013F002BFBD111F8013B002B02F88C
:1009C000013BF9D17047032A40F2308010F0030C4C
:1009D00000F0158011F8013BBCF1020F624498BF92
:1009E00011F801CB00F8013B38BF11F8013BA2F12F
:1009F000040298BF00F801CB38BF00F8013B11F0AA
:100A0000030300F07F81083AC0F0088051F8043BEE
:100A1000083A51F804CBA0E80810F5E7121D5CBFB6
:100A200051F8043B40F8043BAFF30080D20724BFE9
:100A300011F8013B11F801CB48BF11F8012B24BF7D
:100A400000F8013B00F801CB48BF00F8012B7047CC
:100A50004FF0000200B5134694469646203922BF57
:100A6000A0E80C50A0E80C50B1F12001BFF4F7AFA2
:100A7000090728BFA0E80C5048BF0CC05DF804EB84
:100A8000890028BF40F8042B08BF704748BF20F8F2
:100A9000022B11F0804F18BF00F8012B70470000A7
:100AA0004FF0013C50F8042B51F8043B9A4221D1FD
:100AB000A2EB0C03934313EACC1317D150F8042B89
:100AC00051F8043B9A4215D1A2EB0C03934313EA6D
:100AD000CC130BD150F8042B51F8043B9A4209D1A6
:100AE000A2EB0C03934313EACC13DBD04FF00000CE
:100AF000704700BFD01A01BAB1FA81F101F01801B4
:100B000022FA01F0CB40C1F12001DBB2C0B2C01A21
:100B10002CFA01F3D11A914311EAC311E6D17047BF
:100B2000704770477047704710B500F01DF90068B6
:100B300010BD10B5044600F017F9046010BD2DE992
:100B4000F0470D4699469246044600F12408016894
:100B5000880604D5E06921F01001216000E0012041
:100B6000A84201DD471B00E00027A1697A1902EBCA
:100B70000900081AA0612078C00602D42046FFF7B9
:100B80008FFC002608E0D4E901211AF806009047FE
:100B9000206A401C761C20624E45F4DB2078C0069B
:100BA0000AD52046FFF77CFC06E0D4E9012130207D
:100BB0009047206A401C2062381EA7F10107F4DC30
:100BC00007E0D4E9012118F805009047206A401C8D
:100BD0002062281EA5F10105F3DC2046FFF776FC14
:100BE0002078000602D50220BDE8F0870120FBE74F
:100BF00001694A1C02610878704700B58FB0CDE9E1
:100C000001310021059105497944CDE903101146D0
:100C10006846FFF7FDFC0FB000BD0000E5FFFFFFD9
:100C20000A6802F8010B0A60704710B5436913B1F6
:100C3000AFF3008001E0FFF75AFC012010BD1278ED
:100C400000F124010A7000224A700122EDE71168C8
:100C50004FF0FF32E9E70000074B70B50D467B44CB
:100C6000FFF7CBFF0446284600F046FA10B14FF0DC
:100C7000FF3070BD204670BD4BF000003A2800D216
:100C8000303820F02002412A01D3A2F137008842F7
:100C900001D34FF0FF3070470268114413780160B0
:100CA00018467047D1600549794451610449794437
:100CB000116200211161114600F064B8EDFFFFFFE1
:100CC000BF000000426842B1016811F8013B23B146
:100CD000521EC0E90012184670470121C160881EEB
:100CE000704742685AB1C368016843B983688B4250
:100CF00005D0491E521CC0E90012002070474FF079
:100D0000FF30704710B5203AC0F00B80B1E81850A2
:100D1000203AA0E81850B1E81850A0E81850BFF4E5
:100D2000F5AF5FEA027C24BFB1E81850A0E8185084
:100D300044BF18C918C0BDE810405FEA827C24BFD8
:100D400051F8043B40F8043B08BF7047D20728BF66
:100D500031F8023B48BF11F8012B28BF20F8023BB5
:100D600048BF00F8012B70470048704760AA002078
:100D700010B5044600F0EEF90068005D00F00100D7
:100D800010BD00002DE9F34F4FF0000A0C46564607
:100D90008DB001200C9001F10C000B9062690B9852
:100DA0000121904705002DD0252D2CD0216A8847A0
:100DB000C0B162690B9801219047216A88470028D9
:100DC000F7D16269411E0B98904700E0761CA1693B
:100DD0000D988847216A88470028F7D1E1690D9866
:100DE0008847DBE7A1690D988847A842074601D1EB
:100DF000761CD3E7E1690D9888477F1C02D1BAF1D0
:100E0000000F6FD06BE162690B9800273D463946B1
:100E100090472A2804D162690B9801219047012547
:100E2000DFF8D08262690B9801219047A0F1300170
:100E30000A290AD24745E5DC07EB870100EB4107A9
:100E4000303FDFD445F01005ECE7E90601D46FF040
:100E500000476C280AD04C2814D0682815D06A287E
:100E60000DD074281CD07A281AD01DE062690B9826
:100E7000012190476C2802D045F0040514E045F0AC
:100E800002050DE045F020050AE062690B9801219A
:100E90009047682802D045F0080505E045F4006554
:100EA00062690B9801219047C4E9015765283DD03C
:100EB00019DC58287AD00CDC452837D004DC2528EA
:100EC00026D041289ED131E046282FD0472899D1FD
:100ED0002CE05B2877D0612828D063287CD0642858
:100EE00023D15AE0F6E06F2848D008DC66281DD0F0
:100EF00067281BD0692821D06E2816D127E07028DA
:100F000045D0732868D0752847D078280DD14DE09A
:100F1000A1690D988847252805463FF469AFE16926
:100F20000D9888476D1C3FF46AAFD8E00D992346B1
:100F30006A466FF00100AFF30080C5E045F0400065
:100F400023464FF000026060A80736D43EE0E80771
:100F50007FF447AF2068011D21600068290501D595
:100F600006701BE7290701D5068017E7A90703D5F7
:100F7000F117C0E9006111E706600FE745F0400096
:100F800023464FF008026060A80716D41EE040F622
:100F90000E0125EA0100606016E045F0400023469E
:100FA0004FF00A026060A80707D40FE045F0400048
:100FB0006060A80708D5234610220D996FF0010044
:100FC000AFF3008080E007E0102223460D996FF018
:100FD0000100FFF7D7FB77E04FF0000963284F4689
:100FE000C8464B46CB4602D05B2806D038E0E80620
:100FF00001D40120A060012732E06269D4F80CB06E
:101000000B98012190475E2807D14FF0010949460E
:101010006269D4F80CB00B989047216939B9002166
:101020000A4603AB43F82120491C0829FADBD8B350
:10103000216949B308F1010862690B9801219047C1
:101040005D28F4D1B9F1000F09D0002003A951F8AF
:101050002020D24341F82020401C0828F7DB03ABB6
:101060002069002820794FEA40701ED05B46224656
:10107000CDF80080CDE901970D9900286FF00100AF
:1010800020DAAFF300801FE0C11703AA00EBD161A3
:101090004B1121F01F0102EB8302411A136801205A
:1010A000884003431360C7E719E00D9922460028E2
:1010B0006FF00100009702DAAFF3008004E0AFF3B5
:1010C000008001E0AFF3008000280ADA401C06D15E
:1010D0000C9820B14FF0FF300FB0BDE8F08F5046B4
:1010E000FAE7E90701D10AF1010A064400200C9051
:1010F00054E60000CCCCCC0C007B00F080007047A4
:101100000048704760AA00207546FFF7F9FFAE4619
:1011100005006946534620F00700854618B020B503
:10112000FFF796F8BDE820404FF000064FF00007AB
:101130004FF000084FF0000B21F00701AC46ACE87F
:10114000C009ACE8C009ACE8C009ACE8C0098D46EC
:101150007047000010B500F00BF8001D10BD00BF77
:10116000FD3701000446AFF300802046FFF75BF82F
:101170000048704780AA00200029816802D041F011
:10118000010101E021F00101816070470D4910B5B6
:10119000884202D1012144150AE00B49884202D15C
:1011A0000121041504E0094988420AD10121CC0338
:1011B000204607F087FB2046BDE81040002107F0DD
:1011C00081BB10BD0024014000280140003C0140CB
:1011D000014600208968490700D501207047014673
:1011E00000208968090700D50120704710B54268C2
:1011F0000E4B0C791A400B6842EA042213434360F9
:1012000082680B4B1A40D1E9024323434C7942EAEE
:10121000440213438360C26A097C22F47002491EAF
:10122000C9B242EA0151C16210BD0000FFFEF0FFE9
:10123000FDF7F1FF816841F0080181607047816826
:1012400041F004018160704710B5FF2000F037F8CD
:1012500055280AD05521FF2000F077F8FF2000F034
:101260002EF8552801D0012010BD002010BD01F03E
:101270007DBA70B515460E46044608E02046641C4B
:10128000A4B200F01CF86D1E06F8010BADB2002DE3
:10129000F4D170BD2DE9F0410D4601460020044611
:1012A0004E1908E00702301B401E80B200F007F81C
:1012B000641C3844E4B2AC42F4D3BDE8F08110B50C
:1012C000044601F0F7FA200AA02101EB4000C0B269
:1012D00001F0C0FA01F030FBE0B201F0BBFA01F01E
:1012E0002BFB01F0E7FAA12001F0B4FA01F024FB96
:1012F000002001F079FA044601F0FCFA204610BD06
:1013000070B514460D46064606E02978304600F0D2
:101310001CF8761CB6B26D1C641EA4B2F5D270BD6A
:101320002DE9F04116460D460746002409E0E0008D
:1013300025FA00F0C1B2381980B200F006F8641C3A
:10134000E4B2B442F3D3BDE8F08170B50D46044673
:1013500001F0B0FA200AA02101EB4000C0B201F078
:1013600079FA01F0E9FAE0B201F074FA01F0E4FA76
:10137000284601F06FFA01F0DFFA01F0BBFABDE890
:10138000704042F210700CF065BF000030B587B0BD
:1013900001214FF4017007F089FA4FF4004007F083
:1013A0006FFA0220ADF8140000248DF8174005A94B
:1013B000164800F0DFFE164D2846FFF7E7FE4FF413
:1013C0006020CDE9020401208DF804408DF8100062
:1013D00000948DF8054069462846FFF707FF012174
:1013E0002846FFF7C9FE2846FFF724FF2846FFF7E7
:1013F000F6FE0028FAD12846FFF721FF2846FFF71E
:10140000E7FE0028FAD107B030BD00000008014017
:101410000024014010B5012007F060FABDE810403B
:10142000002007F05BBA000008B5024908440090AC
:10143000008808BD006C004008B5024A10440090C6
:10144000016008BD006C004010B578B14FF48054C5
:10145000012805D002280FD11021012008F0C0FC7E
:101460002146BDE81040022008F072BC1021BDE802
:101470001040012008F0B4BC10BDC1B2000A40EA1F
:101480000120704710B5604B0020604C598803E084
:101490005A68125C2254401C8842F9D35B48626847
:1014A00020301F294260A268826007D00220FFF727
:1014B000CBFF00202060607B1A2221E0E17B2829FD
:1014C00001D02A290AD1D4F81100227D00BA20F0D7
:1014D000FF0010439860E08A40BAD8604C4A206808
:1014E000904252D14B4A607B1268904203D8A27B53
:1014F0000AB1102A0DD90220FFF7A6FF607B242233
:10150000052108F007FD0021BDE81040012008F08A
:10151000E1BC252958D01ADC152971D00DDC082929
:101520006ED005DCB9B3032936D004292DD163E090
:101530000A2965D0122928D132E01A390A2924D281
:10154000DFE801F03632235E32232323233E8A294B
:1015500056D00EDC552953D006DC28293CD02A2948
:1015600040D02F2911D143E05A2925D088290CD108
:1015700046E0A82944D004DC8F2941D09E2904D11B
:101580003EE0AA293CD0AF293AD00220FFF75CFF09
:10159000607B2022B4E71BE0BDE8104007F096BE58
:1015A000BDE8104007F0B0BDBDE8104007F09ABE9E
:1015B000BDE8104007F0E2BDBDE8104007F0D8BD1F
:1015C000BDE8104007F04CBEBDE8104007F010BE6B
:1015D000BDE8104007F08ABED3E90212BDE8104012
:1015E00007F0D2BDD3E90212BDE8104007F0B4BE47
:1015F000BDE8104007F096BEBDE8104007F06CBD96
:10160000BDE8104007F09ABD4002002030AA00203B
:1016100055534243A80200202DE9F84F0020ADF8B1
:1016200000004BF6BF7648F280084A4D4A4C40F61F
:101630008F7ADFF8289148F60F7B494F2FE0088812
:1016400010F00F0089F8000032D007EB8001D1F8CC
:10165000002CADF80020BDF8002012040BD5D1F805
:10166000002C02EA0A02C1F8002C3E4901EB80007E
:1016700050F8040C8047BDF8000000060FD599F81B
:10168000000007EB8001D1F8002C02EA0B02C1F840
:10169000002C354901EB800050F8040C80472D48A0
:1016A00044300068314908800004C8D4BDE8F88F90
:1016B00028682080208800F030006080208800F4B6
:1016C000405020802868304080F4005080F0200096
:1016D00040EA080028600888C00617D4296801EA93
:1016E0000B01296001F054F928E02188890401D513
:1016F00080F400506188C90628D46188890601D524
:1017000080F0200040EA08002860CFE72868ADF8A4
:101710000000BDF80000000506D5296801EA0A01AD
:10172000296008F009FC09E0BDF800000004B6D506
:10173000286800EA0A00286007F034F82868218841
:101740003040C904D1D580F48050CEE780F010003D
:10175000D3E70000005C004072010020600100201F
:10176000005000408C020020700200206C0200201B
:1017700070B50D4C0025C4F880510C48016821F467
:1017800070410160016841F440510160C4F88C511E
:101790000A2004F5C0740CF05DFD012020600A20D1
:1017A0000CF058FD256070BD000022420010014081
:1017B0000C48816941F0100181610B4801684FF2CA
:1017C0000F0291430160016843F20302114301607B
:1017D000C16841F00201C160C16841F00801C16007
:1017E00070470000001002400010014070B50D4C21
:1017F0000026C4F880610C48016821F47041016042
:10180000016841F4405101600125C4F88C510A205F
:1018100004F5C0740CF01EFD25600A200CF01AFDC2
:10182000266070BD00002242001001402DE9F04703
:10183000814616480024016821F470410160016866
:1018400041F400410160124E254627464FF0010841
:10185000C6F880711E200CF0FDFCC6F88081600681
:10186000040ED6F80C0108B1641CE4B26D1CEDB294
:10187000082DEDD3B9F1000F04D0FFF779FF204612
:10188000BDE8F087FFF7B2FFF9E700000010014064
:10189000000022422DE9F04105461248016821F47A
:1018A00070410160016841F4405101600E4E002713
:1018B000C6F880713C464FF00108E809C6F88C0173
:1018C0006806050EC6F880810A200CF0C3FCC6F835
:1018D00080710A200CF0BEFC641CE4B2082CECD32E
:1018E000BDE8F081001001400000224270B50D48B3
:1018F000016821F470410160016841F440510160C8
:10190000094C0120C4F88C01C4F880010A2004F5B8
:10191000C0740CF09FFC0025E5600A200CF09AFCD6
:10192000256070BD001001400000224270B50D48D6
:10193000016821F470410160016841F44051016087
:10194000094C0020C4F88001C4F88C010A2004F579
:10195000C0740CF07FFC012525600A200CF07AFC95
:10196000E56070BD001001400000224270B51348D0
:101970000024016821F470410160016841F40041D4
:1019800001600F4D0126C5F88C6130460CF062FCF9
:10199000C5F8806101200CF05DFC07E0641CE4B236
:1019A000FA2C03D9FFF7C2FF012070BDD5F80C0156
:1019B0000028F3D1C5F8800170BD0000001001407F
:1019C00000002242810008480844D0F8001C490465
:1019D00009D5D0F8001C48F68F7211404CF28002F5
:1019E0001143C0F8001C70470050004081000848B7
:1019F0000844D0F8001C490609D5D0F8001C48F668
:101A00008F72114048F2C0021143C0F8001C7047A9
:101A100000500040810006480844D0F8001C48F6F9
:101A20008F62114048F280021143C0F8001C7047D9
:101A30000050004070B516480024016821F00F01E5
:101A40000160016841F008010160124D04E0641C6E
:101A5000E4B201200CF0FEFBD5F8000110B1C82C57
:101A6000F5D30DE0C82C0BD2002404E0641CE4B2D2
:101A700001200CF0EFFBD5F8000118B1F02C04D3D5
:101A8000012070BDF02CF1D3FAE7002070BD0000FA
:101A9000000801400000214238B50121042006F071
:101AA00005FF0120ADF8000010208DF80300032091
:101AB000074C8DF802006946204600F05BFB0121CF
:101AC000204600F0D3FB00F005F8FFF7B3FF38BD68
:101AD000000801400D4810B5016821F00F010160B8
:101AE000016841F003010160094C0020C4F8800145
:101AF00040F2EE2004F5C0740CF0ACFB0120206035
:101B0000BDE810400F200CF0A5BB0000000801400C
:101B1000000021422DE9F047DFF89490254F4FF067
:101B20003008D9F8001001F11005088A0E7A08B9BA
:101B3000042E04D0AC88A04215D8042614E01E4818
:101B40000178012903D00726102038802BE01B4A9A
:101B5000002112681A4B120403EBD2325160A7F82D
:101B6000008001701FE00226844200D90446A96863
:101B7000204688478246002000F04EFD014622465E
:101B8000504609F095FC2146002008F01BF92888F2
:101B9000001B2880688820446880A7F800800949D5
:101BA0004FF440500880D9F800000672BDE8F08775
:101BB00064010020740100205C010020505C0040A2
:101BC00000600040720100202DE9F047224EDFF84E
:101BD0008C803027346834F8100FA168A9B100B3A5
:101BE000A588854200D90546284688478146208831
:101BF000401B2080608828446080002000F0E0FCCA
:101C000001462A46484606F0F1FD208848B11449AD
:101C10004FF4405008800021084608F0D3F8A8F897
:101C200000702088A188884201D3032001E020B100
:101C3000052031680872BDE8F08731680620087217
:101C4000084900200968084A090402EBD1314860BC
:101C5000A8F80070EFE70000640100207401002084
:101C600072010020505C004000600040F8B55D4CFF
:101C70005D4D09262068002729684278062A05D08C
:101C8000AAB1082A4DD00A2A50D06BE00278520639
:101C900068D18078012804D0022804D0032804D019
:101CA00060E0C96956E0096A54E0496A52E0428836
:101CB000B2BBC288022A55D102798ABB0278530688
:101CC00001D1838833B102F07F02012A04D0022AB5
:101CD0000CD047E045493DE08A69407900219047B2
:101CE000F0B92068807A0028F4D13BE0417901F016
:101CF0000F0001F070020B063D4901EB8001D1F8A5
:101D0000001C03D5C1F30111090102E0C1F3013147
:101D10000903384B1B78834224D90AB90029D9D149
:101D200020E0007840061DD1334913E0027802F02C
:101D30007F02012A16D1827AA2B1428892B9027931
:101D400082B9C288012A0DD18A6940790021904761
:101D500040B92A4931B12068478281610020884713
:101D6000002006E029682068096940788847032830
:101D700013D021680A8AA2F57F43FF3B0BD00228CB
:101D80000ED06AB10878000626D5C8880090824235
:101D90000AD9088218E00E72F8BD20680672F8BDF4
:101DA0004FF008000872F8BD0ED22868144B90F866
:101DB0002C00824201D21F7006E0B2FBF0F400FB5F
:101DC000142008B901201870286890F82C00888227
:101DD000BDE8F840FFF79EBE0320087209490003E2
:101DE0000880F8BD64010020680100205DA20008A1
:101DF0000050004014030020F1A1000835A20008A3
:101E00005C0100207201002005F016BD05F052BDF6
:101E100001490860704700001404014030B51A4AB7
:101E20008379016853B313688B431360111D0B68EA
:101E30000468A3430B60017911440B6804682343D1
:101E40000B60114B083319680468A14319601C1D0D
:101E500021680568A94321604179102905D0114402
:101E60000A68006802430A6030BD196802681143BD
:101E70001960216800680143216030BD0079104479
:101E800002688A43026030BD0004014010B503A01F
:101E9000FEF7E6FA08490320086010BD757362205A
:101EA000656E746572206C6F7720706F7765722035
:101EB0006D6F64650D0A00003C0300207CB50121B4
:101EC000102006F0F3FC4FF40054ADF8044010204D
:101ED0008DF8070003202D4D8DF8060001A9284636
:101EE00000F048F92146284600F0C0F90221ADF87B
:101EF000041048218DF8071001A9284600F03AF98E
:101F00000221284600F0B2F9FFF752FC204D0024D0
:101F1000C5F8B441142005F5DA750CF079F9012003
:101F2000286032200CF074F98DF8004001226946D7
:101F3000002000F0FBF801226946A42000F0F6F82A
:101F400016208DF8000001226946802000F0EEF88E
:101F50000C208DF8000001226946882000F0E6F888
:101F600002226946A12000F01BF89DF800003028ED
:101F700003D19DF80100032801D001207CBD43F26C
:101F8000030104A0FEF76CFA00207CBD00100140A4
:101F9000000022424354502049443A25780D0A005B
:101FA0002DE9F04115460F460446FFF79FFC7020CF
:101FB000FFF770FCFFF7DAFCE0B2FFF76BFCFFF70E
:101FC000D5FCFFF793FC7120FFF764FCFFF7CEFC14
:101FD00000246E1E09E0B44201D0012000E0002080
:101FE000FFF724FC3855641CE4B2AC42F3D3BDE8DF
:101FF000F041FFF79BBC00002DE9F143484F00245E
:102000004FF00A09387882B0401CC0B2B0FBF9F238
:1020100009FB1201434DA046387009B10A2863D26A
:10202000012202A90220FFF7BBFF9DF8080001076B
:102030005AD000F00F00062856D2FF218140C84335
:1020400040F0C00085F820004FF00108002695F808
:10205000201008FA04F0014239D0334804226946BE
:1020600030F81400FFF79CFF95F830009DF8001041
:10207000C0079DF8010001F00F010ED000EB012117
:1020800005EB4400C1829DF802209DF8031002F088
:102090000F0201EB022181810FE000EB0120C0F56E
:1020A000F07105EB440081819DF802209DF803103A
:1020B00002F00F0201EB0221C1829DF8000008210D
:1020C000B1EB101F03D005EB4400C6828681641C6F
:1020D000E4B2052CBBD3A9894FF0010819B9E88AED
:1020E00008B98DF808603E709DF80800C0060ED152
:1020F00095F82000010602D520F0800005E04FF69B
:10210000FF71A981E98200F0E00085F820003878AD
:10211000F02801D987F800904046BDE8FE83000012
:102120009200002050000020C67401082DE9F04103
:1021300015460E4604460027FFF7D8FB7020FFF730
:10214000A9FBFFF713FCE0B2FFF7A4FBFFF70EFCBF
:10215000002408E0305DFFF79DFBFFF707FC070058
:1021600003D1641CE4B2AC42F4D3FFF7DFFB384682
:10217000BDE8F081F0B5CC78002204F00F03E4064E
:1021800001D58C7823430C784FF00F0C14F0FF0F1F
:102190004FF0010E1BD005680E880EFA02F426409F
:1021A000A64210D196000CFA06F725EA070703FAB3
:1021B00006F5CE783D43282E02D0482E02D002E00C
:1021C000446100E00461521C082AE5D305600A88D6
:1021D000FF2A1CD94468002202F108060EFA06F50F
:1021E0000E882E40AE420ED196000CFA06F7BC4384
:1021F00003FA06F7CE783C43282E00D14561CE780D
:10220000482E00D10561521C082AE5D34460F0BD78
:10221000F0B5144C002801DAE36900E06368450D6D
:102220002E0185B2C0F30157B540C0F30342032F1E
:1022300005D0C6020AD503269640B34307E023F033
:102240007062636823F07063636002E0AB4343F045
:10225000706201B12A43002801DAE261F0BD6260D8
:10226000F0BD00000000014041617047016170470E
:10227000FEB50121102006F019FB42F20200ADF874
:10228000080010208DF80B000320334E8DF80A0053
:1022900002A93046FFF76EFF02213046FFF7E6FF46
:1022A00071143046FFF7E2FFFFF782FA2B4D00244E
:1022B000C5F8B4410A2005F5DA750BF0A9FF012035
:1022C00028600A200BF0A4FF0225ADF80850282052
:1022D0008DF80B0002A93046FFF74CFF0221304673
:1022E000FFF7C2FF64200BF093FF0422694648F217
:1022F000401000F049F88DF80440694618A0FEF738
:10230000AFF81AA16846FEF7CBFB08B10120FEBD6D
:102310008DF8005048F2400501226946284600F039
:1023200025F901226946E81D00F02EF89DF80010FD
:10233000602905D20FA0FEF793F8012000F0F0F815
:102340000A200BF065FF8DF80040012269462846FF
:1023500000F00CF90020FEBD0010014000002242F8
:102360004354502049443A25730D0A00393134371B
:102370000000000044656661756C74205665723A11
:1023800025640D0A000000002DE9F04115460F46B6
:102390000446FFF7ABFA2820FFF77CFAFFF7E6FACE
:1023A000200AFFF777FAFFF7E1FAE0B2FFF772FAD7
:1023B000FFF7DCFAFFF79AFA2920FFF76BFAFFF72D
:1023C000D5FA00246E1E09E0B44201D0012000E0DD
:1023D0000020FFF72BFA3855641CE4B2AC42F3D36B
:1023E000BDE8F041FFF7A2BA2DE9F147494E0024BC
:1023F0004FF00A09307883B0401CC0B2B0FBF9F24C
:1024000009FB1201444DA046307009B10A2863D27D
:1024100048F24E1A012203A95046FFF7B5FF9DF876
:102420000C004FF00007010747D000F00F0106290C
:1024300043D2FF2088408DF80400C04340F0C00024
:1024400085F820004FF0010895F8201008FA04F0F4
:10245000014225D031480422694630F81400FFF7C4
:1024600093FF95F830009DF80110C0079DF800001B
:1024700000EB012105EB44000AD0C1829DF8021057
:102480009DF8032001EB0221C1F54871818107E02D
:1024900081819DF802109DF8032001EB0221C18289
:1024A000641CE4B2052CCFD3A9894FF0010819B9F7
:1024B000E88A08B98DF80C7037709DF80C00010699
:1024C0000AD500F00F00062806D28DF8047001220C
:1024D00001A9504600F04AF89DF80C0000F08F006A
:1024E00080280ED195F82000010602D520F080004A
:1024F00005E04FF6FF71A981E98200F0E00085F860
:1025000020003078F02801D986F8009004B04046C9
:10251000BDE8F0879100002050000020BC74010845
:1025200008B500218DF800108DF801000E489DF8C7
:102530000020435C491C1A44C9B28DF80020B82918
:10254000F5D3D0B2C043401C8DF80000B822064934
:1025500048F2470000F00AF80222694648F2FF00FC
:1025600000F004F8002008BD047401082DE9F041D2
:1025700015460E4604460027FFF7B8F92820FFF756
:1025800089F9FFF7F3F9200AFFF784F9FFF7EEF96D
:10259000E0B2FFF77FF9FFF7E9F9002408E0305DCA
:1025A000FFF778F9FFF7E2F9070003D1641CE4B202
:1025B000AC42F4D3FFF7BAF93846BDE8F081000029
:1025C0000549096889B201EBC000044901EB4000EC
:1025D000008980B270470000505C004000600040FD
:1025E0000549096889B201EBC000044901EB4000CC
:1025F0008089C0F309007047505C004000600040D3
:10260000044901EB8000D0F8000CC0F30130000356
:1026100070470000005000400449096889B201EB8E
:10262000C000034931F8100080B27047505C004090
:10263000006000402DE9F041154602460C4668074F
:1026400000D0012000EBD5006843C1B21078537868
:10265000812809D3402B07D3FF2B05D0FF2803D0B7
:102660007F2B0CD2403B0BE00022104603E0521CB3
:1026700004F8010BD2B28A42F9D3BDE8F081413BA4
:102680008138DAB2C0B2C0EB401303EB801002EB2A
:1026900040064E43FDF7EEFD07460F480C2D04D0D3
:1026A000102D07D0182D0CD110E0D0F80900811999
:1026B000182203E0D0F8110081192022204607F0EB
:1026C000C1F93846BDE8F041FDF7D8BDD0F8190092
:1026D00081194822F2E70000F8A0002008B1044860
:1026E00070470449012009680882002070470000F3
:1026F000A8020020640100200A4810B50168001DEE
:102700000468001D006808180BD00822064900F074
:102710006DF9054920460422BDE81040103100F053
:1027200065B910BDE8F7FF1F5202002070B50D4CCF
:102730000025C4F8B0510C48416821F47041416053
:10274000416841F440514160C4F8AC51022004F5A5
:10275000D6740BF07FFD0120606002200BF07AFD43
:10276000656070BD000022420010014008B50121E3
:10277000102006F09BF84FF4C050ADF80000102078
:102780008DF8030003208DF8020069460448FFF726
:10279000F1FC04480121C0F8B011C0F8AC1108BD2B
:1027A000001001400000224270B50D4C0026C4F814
:1027B000B0610C48416821F470414160416841F4C6
:1027C000405141600125C4F8AC51022004F5D67493
:1027D0000BF040FD656002200BF03CFD666070BDB3
:1027E00000002242001001402DE9F04781461748C1
:1027F0000024416821F470414160416841F4004186
:102800004160134E254627464FF00108C6F8B071C7
:1028100002200BF01FFDC6F8B0816006040ED6F84A
:102820002C0108B1641CE4B201200BF013FD6D1CF7
:10283000EDB2082DEAD3B9F1000F04D0FFF776FF0F
:102840002046BDE8F087FFF7AFFFF9E70010014031
:10285000000022422DE9F04105461448416821F468
:1028600070414160416841F440514160104E002781
:10287000C6F8B0713C464FF00108E809C6F8AC0153
:102880006806050E02200BF0E5FCC6F8B0810220B8
:102890000BF0E0FCC6F8B07102200BF0DBFC641C0E
:1028A000E4B2082CE9D3BDE8F0810000001001403B
:1028B0000000224270B50D48416821F4704141602A
:1028C000416841F440514160094C0120C4F8AC0119
:1028D000C4F8B001042004F5D6740BF0BBFC00254D
:1028E000256004200BF0B6FC656070BD001001404F
:1028F000000022420E4810B5416821F47041416049
:10290000416841F4405141600A4C0020C4F8B001D4
:10291000C4F8AC01042004F5D6740BF09BFC012034
:1029200060602060BDE8104004200BF093BC000004
:10293000001001400000224270B513480024416895
:1029400021F470414160416841F4004141600F4D04
:102950000126C5F8AC6130460BF07CFCC5F8B061CF
:1029600001200BF077FC07E0641CE4B2FA2C03D9D9
:10297000FFF7C0FF012070BDD5F82C010028F3D16E
:10298000C5F8B00170BD00000010014000002242F7
:1029900010B5134C2068017A022904D0042902D012
:1029A000062905D015E0FFF7B5F82068007A11E098
:1029B0004178052909D10178490606D1C07807F088
:1029C00073F908480068006A804707480068806813
:1029D0008047082021680872BDE8104005F01CBF40
:1029E000640100206C01002068010020F0B5002384
:1029F0000A24302537261F4610E0B4EB107F02D999
:102A000005EB107C01E006EB107C01F813C001EB34
:102A1000430C00015B1C8CF80170DBB29342ECD3D9
:102A2000F0BD81070CD16421B0FBF1F201FB120172
:102A300041B94FF4C871B0FBF1F201FB120008B1CB
:102A4000002070470120704738B50121142005F09F
:102A50002DFF01211148FFF7DBFB4FF40040ADF8DB
:102A600000000F4D48248DF8034069462846FFF7C3
:102A700081FB2021ADF800108DF80340694609481C
:102A8000FFF778FB0120ADF8000028208DF8030047
:102A900069462846FFF76EFB38BD00000002300093
:102AA000000801400010014070B51C4C1C4E1D4D2B
:102AB000012108B1217001E0207848B1D6F8140155
:102AC00058B1D5F83C0140B1D5F80001012804D037
:102AD000D6F81401012816D01DE00A200BF098FB4F
:102AE00000202070D6F8140138B1D5F83C0130B17F
:102AF000D5F80001012804D00DE0012070BD0220AE
:102B000070BD032070BDD5F83C01012803D1D5F874
:102B1000000100B92170002070BD000038000020C5
:102B20000000224200002142C0F34511C20AC00247
:102B300000EB4110104480B2704700002DE9F043D3
:102B40001C4F0646002438887D884543B888A0F588
:102B5000D041043902D1B87901280CD000210846AF
:102B600004F0E2F904F0BCFC13494FF480774B15F4
:102B7000124A80201AE00020B8714FF02A08A7F806
:102B80000A804FF02B09A7F80C90014604F0CCF90D
:102B90000120B871A7F80A90A7F80C80E2E70F614E
:102BA0004B611660486108610B61641CAC42F6D34E
:102BB000BDE8F083180C0020001001400C0C01400F
:102BC0002DE9F04F8346A2EB0B00401C894685B2ED
:102BD000A3EB0900401C1FFA80FA0024099E21E0A3
:102BE00009EB040081B2584604F09EF904F078FC29
:102BF0000E4900204B154FF480780D4A80270DE0D8
:102C0000C1F810804B6104FB050C36F81CC0C2F8FB
:102C100000C04F610F610B61401C80B2A842EFD32E
:102C2000641CA4B25445DBD3BDE8F08F0010014012
:102C30000C0C01402DE9F04F4A492A232B248988A6
:102C400045F2105A4FF4305B4FF4285E4FF448754C
:102C50004FF0F00C49F241394FF4A07745F21036AD
:102C60004FF4F07280B13F484FF00108494580F8B9
:102C700006800780A0F802C001D0B1423ED12C25C9
:102C800005814381848157E036484FF0000849456B
:102C900080F80680A0F800C0478006D0A1F5D04C8F
:102CA000BCF1040C01D0B1420CD12C25058143812B
:102CB000A1F5D0438481043B01D0B14244D10780C7
:102CC000428041E0514507D1A0F808B0A0F80AE0E1
:102CD0004FF42C5181810EE0A1F5C856633E06D019
:102CE0002221018120214181212181812CE02C217F
:102CF0000181448183810280458025E0A1F5D04C8B
:102D0000BCF1040C09D051450BD1A0F808B0A0F8D3
:102D10000AE04FF42C53838121E02C250581448166
:102D200009E0A1F5C85CBCF1630C12D02223038139
:102D30002123438120238381A1F5D043043B01D08B
:102D4000B14201D102804780BDE8F04F002003F07E
:102D500071BF4FF02C0CA0F808C04381848105801E
:102D60004280E9E7180C00202DE9FE4F0026A2EB77
:102D7000000882465F1A701E35468946B8F1000F7A
:102D800002DD4FF0010102E003D14FF0000101919B
:102D900002E0C8F100080190002F02DD4FF00100B1
:102DA00002E003D14FF00000009002E0C7F10007FD
:102DB00000904046B84501DD044600E03C46601CFA
:102DC0004FF0000B029015E01FFA89F11FFA8AF00C
:102DD00000F016F846443D44A64202DD0199361B38
:102DE0008A44A54202DD00992D1B89440BF10100A4
:102DF0001FFA80FB02998B45E6DDBDE8FE8F0000DF
:102E000000B504F091F804F06BFB07484FF48071B3
:102E1000016141154161054A054B12881A60802203
:102E200042610261016100BD001001403E000020CE
:102E30000C0C01402DE9FC4F804600241546032070
:102E40000F46A0EB450649E0781B81B208EB040A67
:102E500001901FFA8AF0FFF7D3FF381B81B208EB0D
:102E6000050900901FFA89F0FFF7CAFF07EB040B72
:102E70001FFA8BF11FFA89F0FFF7C2FF07EB050974
:102E80001FFA89F11FFA8AF0FFF7BAFFA8EB040ACC
:102E90001FFA89F11FFA8AF0FFF7B2FFA8EB0509C4
:102EA0001FFA8BF11FFA89F0FFF7AAFF019881B290
:102EB0001FFA8AF0FFF7A4FF009881B21FFA89F089
:102EC000FFF79EFF641C002E03DA06EB8406B61D96
:102ED00004E0601B06EB80066D1E0A36AC42B3DDD3
:102EE000BDE8FC8F2DE9F74F05468F4881B0DFF82C
:102EF0003CA2818802982F0A00F0FF094FEA1028AF
:102F0000E8B200908848A1F513424FF4807B4089D5
:102F10004FF40076413A17D0834CA1F5A642103AFF
:102F200012D0B2F5007236D02246A1F5C857937977
:102F30001288521B521E633F63D0A1F5D047043F55
:102F40007ED0012B7DD0D1E004F0B8FA784CC4F8E3
:102F500010B06661CAF80070802565612561266140
:102F6000C4F810B066610098CAF800006561256178
:102F700026616D48808904F0A1FAC4F810B066613A
:102F80005146CAF80080656125612661C4F810B019
:102F90006661484631E004F091FA654CC4F810B01F
:102FA0006661CAF8007080256561256126615E480A
:102FB0004089401C80B204F081FAC4F810B0666108
:102FC0000098CAF80000656125612661564880892D
:102FD00004F074FAC4F810B06661CAF80080656144
:102FE0002561266150488089401C80B204F066FA51
:102FF000C4F810B0666148465146086065612561B5
:1030000071E003B995B204F059FA494CC4F810B014
:103010006661280ACAF80000802767612761266177
:10302000C4F810B06661E9B2CAF8001067612761A0
:103030002661C4F810B06661CAF80000676101E05B
:1030400024E052E027612661C4F810B06661CAF836
:1030500000106761276126613348808904F02EFAE9
:10306000C4F810B066615146CAF8008067612761F4
:103070002661C4F810B06661CAF8009067612761E4
:103080002661C4F810B06661404621E0012B00D1F2
:1030900095B204F013FA264CC4F810B06661290A00
:1030A000CAF800108027676127612661C4F810B054
:1030B0006661E9B2CAF800106761276126611A48A3
:1030C000808904F0FBF9C4F810B0666140465146AF
:1030D0000860676127612661C4F810B06661C1F8B5
:1030E000009067612761266107E095B2294604F0E8
:1030F000FDF9A089029904F0F9F90D48C0F814B05F
:10310000466109490989CAF80010802141610161BD
:103110000661C0F810B04661039BCAF800304161F7
:1031200001610661BDE8FF8F180C00200C0C014006
:10313000001001402DE9F84F264D81469846A88899
:103140000A9EA0F5D043043B02D1A87901280AD0F9
:10315000A2EB0900401C85B20C461F4F4FF4007AC9
:103160004FF0800B32E02B880846991A0024AC718E
:103170002A24A3EB09036C812B27491E5B1EAF8118
:1031800089B242469BB20096FFF7D4FF0120A87196
:103190006F81AC81BDE8F88F2146484603F0C4FE3C
:1031A00004F09EF900204FF4807C53460B4A5946A8
:1031B00008E0C7F810C07B611660796139613B6136
:1031C000401C80B2A842F4D3641CA4B24445E3D9A5
:1031D000E0E70000180C0020001001400C0C01403A
:1031E0002DE9F84F0121192005F060FB0121FE486F
:1031F000FFF70EF84FF4F860ADF8000010208DF8DE
:10320000030003208DF802006946F848FEF7B2FF7C
:103210004FF4F861F548FFF729F8F54D4FF6FF74C4
:10322000ADF8004069462846FEF7A4FF214628462F
:10323000FFF71CF832200AF0EBFF0121002004F018
:1032400055F932200AF0E4FF002003F09DFCE94D1F
:103250004FF4807449F24138A88046F6040945F2DB
:10326000103A45F21056FF2806D3A0F57F41FF39EA
:1032700002D0B0F5134F6DD1D32004F01FF903F045
:1032800083FB03F081FB03F07FFB4FF6FF7707EA38
:103290000020A88003F078FBA9880843A880404557
:1032A00058D0BF2004F00AF903F06EFB03F06CFB6A
:1032B00003F06AFB03F068FB07EA0020A88003F034
:1032C00063FBA9880843A880484543D0D42004F074
:1032D000F5F803F059FB03F057FB03F055FB07EA41
:1032E0000020A88003F050FBA9880843A88050451F
:1032F00030D04FF45A4004F0E1F803F045FB4FF4AE
:103300005B4004F0DBF803F03FFB07EA0020A880F5
:103310004FF45C4004F0D2F803F036FBA988084370
:10332000A880B0F5004F7DD0B04213D0A12004F0AA
:10333000C5F803F029FBA88003F026FB07EA00206C
:10334000A88003F021FBA9880843A0F5AE41A8801E
:10335000613968D080B2404566D1CF2004F0AEF824
:10336000002004F099F8C12004F096F8302004F011
:1033700093F8ED2004F0A2F8642004F08DF8032007
:1033800004F08AF8122004F087F8812004F084F811
:10339000E82004F093F8852004F07EF8102004F073
:1033A0007BF87A2004F078F8CB2004F087F83920F5
:1033B00004F072F82C2004F06FF8002004F06CF890
:1033C000342004F069F8022004F066F8F72004F0D5
:1033D00075F8202004F060F8EA2004F06FF800206F
:1033E00004F05AF8002004F057F8C02004F066F802
:1033F0001B2004F051F8C12004F060F8012004F013
:103400004BF8C52004F05AF8302004F045F830207D
:1034100004F042F8C72004F051F8B72004F03CF85B
:10342000362002E0B1E0ABE0B2E004F047F848201B
:1034300004F032F83A2004F041F8552004F02CF85A
:10344000B12004F03BF8002004F026F81A2004F024
:1034500023F8B62004F032F80A2004F01DF8A22068
:1034600004F01AF8F22004F029F8002004F014F80F
:10347000262004F023F8012004F00EF8E02004F0E8
:103480001DF80F2004F008F82A2004F005F8282081
:1034900004F002F8082003F0FFFF0E2003F0FCFF09
:1034A000082003F0F9FF542003F0F6FFA92003F0F1
:1034B000F3FF432003F0F0FF0A2003F0EDFF0F209D
:1034C00003F0EAFF002003F0E7FF002003F0E4FF31
:1034D000002003F0E1FF002003F0DEFFE12003F015
:1034E000EDFF002003F0D8FF152003F0D5FF1720D3
:1034F00003F0D2FF072003F0CFFF112003F0CCFF31
:10350000062003F0C9FF2B2003F0C6FF562003F06E
:10351000C3FF3C2003F0C0FF052003F0BDFF1020D7
:1035200003F0BAFF0F2003F0B7FF3F2003F0B4FF12
:103530003F2003F0B1FF0F2003F0AEFF2B2003F07C
:10354000BDFF002003F0A8FF002003F0A5FF01202D
:1035500003F0A2FF3F2003F09FFF2A2003F0AEFFFD
:10356000002003F099FF002003F096FF002003F0F5
:1035700093FFEF2003F090FF112003F09FFFB7E0CF
:1035800041F66310A88003F069B8AE8001F034B84A
:1035900048457DD1112003F091FF14200AF038FE38
:1035A000D02003F08BFF072003F076FF422003F0CA
:1035B00073FF1D2003F070FFD12003F07FFF002078
:1035C00003F06AFF1A2003F067FF092003F064FF8D
:1035D000D22003F073FF012003F05EFF222003F0EE
:1035E0005BFFC02008E00000000230000010014036
:1035F000000C0140180C002003F060FF102003F0C5
:103600004BFF3B2003F048FF002003F045FF022062
:1036100003F042FF112003F03FFFC52003F04EFFEF
:10362000032003F039FFC82003F048FF002003F017
:1036300033FF252003F030FF212003F02DFF05206C
:1036400003F02AFF002003F027FF0A2003F024FFE5
:10365000652003F021FF252003F01EFF772003F0F3
:103660001BFF502003F018FF0F2003F015FF002070
:1036700003F012FFF82003F021FF012003F00CFFFC
:10368000FE2003F01BFF002003F006FF022000E0F5
:1036900034E003F001FF202003F010FF362003F098
:1036A0000DFF082003F0F8FE3A2003F007FF552035
:1036B00003F0F2FE2B2003F001FF002003F0ECFEEC
:1036C000002003F0E9FE012003F0E6FE3F2003F0B6
:1036D000E3FE2A2003F0F2FE002003F0DDFE0020CE
:1036E00003F0DAFE012003F0D7FEDF2003F0D4FE62
:1036F00078200AF08DFD292001F0FBBE50457CD1D9
:10370000ED2003F0DBFE012003F0C6FEFE2003F0F7
:10371000C3FEEE2003F0D2FEDE2003F0BDFE21202A
:1037200003F0BAFEF12003F0C9FE012003F0B4FE5D
:10373000DF2003F0C3FE102003F0AEFEC42003F030
:10374000BDFE8F2003F0A8FEC62003F0B7FE0020C8
:1037500003F0A2FEE22003F09FFEE22003F09CFEB5
:10376000E22003F099FEBF2003F0A8FEAA2003F098
:1037700093FEB02003F0A2FE0D2003F08DFE00208A
:1037800003F08AFE0D2003F087FE002003F084FE84
:10379000112003F081FE002003F07EFE192003F0CB
:1037A0007BFE002003F078FE212003F075FE002050
:1037B00003F072FE2D2003F06FFE002003F06CFE7C
:1037C0003D2003F069FE002003F066FE5D2003F05B
:1037D00063FE002003F060FE5D2003F05DFE00202C
:1037E00003F05AFEB12003F069FE802003F054FE7E
:1037F000002003F051FE8B2000E0FCE303F04CFEC0
:10380000002003F049FE962003F046FE002003F05E
:1038100043FEB22003F052FE002003F03DFE0020E4
:1038200003F03AFE022003F037FE002003F034FEDE
:10383000032003F031FE002003F02EFEB32003F03E
:103840003DFE002003F028FE002003F025FE0020AE
:1038500003F022FE002003F01FFE002003F01CFEF8
:10386000002003F019FE002003F016FE002003F0F4
:1038700013FE002003F010FE002003F00DFE0020D8
:1038800003F00AFE002003F007FE002003F004FE10
:10389000002003F001FE002003F0FEFD002003F0F5
:1038A000FBFD002003F0F8FD002003F0F5FD0020F3
:1038B00003F0F2FD002003F0EFFD002003F0ECFD2B
:1038C000002003F0E9FD002003F0E6FD002003F0F6
:1038D000E3FDB42003F0F2FD8B2003F0DDFD0020BA
:1038E00003F0DAFD962003F0D7FD002003F0D4FDAD
:1038F000A12003F0D1FD002003F0CEFDB52003F0A0
:10390000DDFD022003F0C8FD002003F0C5FD03200B
:1039100003F0C2FD002003F0BFFD042003F0BCFD56
:10392000002003F0B9FDB62003F0C8FD002003F02D
:10393000B3FD002003F0B0FDB72003F0BFFD002071
:1039400003F0AAFD002003F0A7FD3F2003F0A4FD33
:10395000002003F0A1FD5E2003F09EFD002003F097
:103960009BFD642003F098FD002003F095FD8C2062
:1039700003F092FD002003F08FFDAC2003F08CFDDE
:10398000002003F089FDDC2003F086FD002003F019
:1039900083FD702003F080FD002003F07DFD90206A
:1039A00003F07AFD002003F077FDEB2003F074FDB7
:1039B000002003F071FDDC2003F06EFD002003F019
:1039C0006BFDB82003F07AFD002003F065FD0020B8
:1039D00003F062FD002003F05FFD002003F05CFDBA
:1039E000002003F059FD002003F056FD002003F0F5
:1039F00053FD002003F050FDBA2003F05FFD2420AA
:103A000003F04AFD002003F047FD002003F044FDD1
:103A1000002003F041FDC12003F050FD202003F001
:103A20003BFD002003F038FD542003F035FD00205D
:103A300003F032FDFF2003F02FFD002003F02CFDEA
:103A4000C22003F03BFD0A2003F026FD002003F016
:103A500023FD042003F020FD002003F01DFDC32002
:103A600003F02CFD3C2003F017FD002003F014FDB3
:103A70003A2003F011FD002003F00EFD392003F081
:103A80000BFD002003F008FD372003F005FD0020AA
:103A900003F002FD3C2003F0FFFC002003F0FCFCDF
:103AA000362003F0F9FC002003F0F6FC322003F08E
:103AB000F3FC002003F0F0FC2F2003F0EDFC0020CD
:103AC00003F0EAFC2C2003F0E7FC002003F0E4FC08
:103AD000292003F0E1FC002003F0DEFC262003F0A7
:103AE000DBFC002003F0D8FC242003F0D5FC0020F0
:103AF00003F0D2FC242003F0CFFC002003F0CCFC28
:103B0000232003F0C9FC002003F0C6FC3C2003F096
:103B1000C3FC002003F0C0FC362003F0BDFC0020F5
:103B200003F0BAFC322003F0B7FC002003F0B4FC31
:103B30002F2003F0B1FC002003F0AEFC2C2003F09A
:103B4000ABFC002003F0A8FC292003F0A5FC00201A
:103B500003F0A2FC262003F09FFC002003F09CFC55
:103B6000242003F099FC002003F096FC242003F0AD
:103B700093FC002003F090FC232003F08DFC002038
:103B800003F08AFCC42003F099FC622003F084FC5B
:103B9000002003F081FC052003F07EFC002003F0F0
:103BA0007BFC842003F078FC002003F075FCF020FF
:103BB00003F072FC002003F06FFC182003F06CFC93
:103BC000002003F069FCA42003F066FC002003F051
:103BD00063FC182003F060FC002003F05DFC502023
:103BE00003F05AFC002003F057FC0C2003F054FCB7
:103BF000002003F051FC172003F04EFC002003F0DE
:103C00004BFC952003F048FC002003F045FCF3201A
:103C100003F042FC002003F03FFCE62003F03CFCF4
:103C2000002003F039FCC52003F048FC322003F0EB
:103C300033FC002003F030FC442003F02DFC002076
:103C400003F02AFC652003F027FC002003F024FC8D
:103C5000762003F021FC002003F01EFC882003F0F6
:103C60001BFC002003F018FCC62003F027FC2020DA
:103C700003F012FC002003F00FFC172003F00CFCF3
:103C8000002003F009FC012003F006FC002003F0F3
:103C900003FCC72003F012FC002003F0FDFB002012
:103CA00003F0FAFB002003F0F7FB002003F0F4FB25
:103CB000C82003F003FC002003F0EEFB002003F01B
:103CC000EBFB002003F0E8FB002003F0E5FBC9203C
:103CD00003F0F4FB002003F0DFFB002003F0DCFB2B
:103CE000002003F0D9FB002003F0D6FB002003F0F6
:103CF000D3FB002003F0D0FB002003F0CDFB00201D
:103D000003F0CAFB002003F0C7FB002003F0C4FB54
:103D1000002003F0C1FB002003F0BEFB002003F0F5
:103D2000BBFB002003F0B8FB002003F0B5FB002034
:103D300003F0B2FBE02003F0C1FB162003F0ACFB64
:103D4000002003F0A9FB1C2003F0A6FB002003F0D9
:103D5000A3FB212003F0A0FB002003F09DFB3620F5
:103D600003F09AFB002003F097FB462003F094FB3E
:103D7000002003F091FB522003F08EFB002003F0A3
:103D80008BFB642003F088FB002003F085FB7A2086
:103D900003F082FB002003F07FFB8B2003F07CFB11
:103DA000002003F079FB992003F076FB002003F05C
:103DB00073FBA82003F070FB002003F06DFBB9201B
:103DC00003F06AFB002003F067FBC42003F064FBF0
:103DD000002003F061FBCA2003F05EFB002003F02B
:103DE0005BFBD22003F058FB002003F055FBD920E9
:103DF00003F052FB002003F04FFBE02003F04CFBEC
:103E0000002003F049FBF32003F046FB002003F001
:103E100043FBE12003F052FB162003F03DFB0020A2
:103E200003F03AFB1C2003F037FB002003F034FBC7
:103E3000222003F031FB002003F02EFB362003F09C
:103E40002BFB002003F028FB452003F025FB00207E
:103E500003F022FB522003F01FFB002003F01CFBA9
:103E6000642003F019FB002003F016FB7A2003F016
:103E700013FB002003F010FB8B2003F00DFB002050
:103E800003F00AFB992003F007FB002003F004FB7A
:103E9000A82003F001FB002003F0FEFAB92003F094
:103EA000FBFA002003F0F8FAC42003F0F5FA002032
:103EB00003F0F2FACA2003F0EFFA002003F0ECFA64
:103EC000D22003F0E9FA002003F0E6FAD82003F04C
:103ED000E3FA002003F0E0FAE02003F0DDFA00202E
:103EE00003F0DAFAF32003F0D7FA002003F0D4FA53
:103EF000E22003F0E3FA052003F0CEFA002003F0FD
:103F0000CBFA0B2003F0C8FA002003F0C5FA1B20FF
:103F100003F0C2FA002003F0BFFA342003F0BCFA29
:103F2000002003F0B9FA442003F0B6FA002003F0B1
:103F3000B3FA4F2003F0B0FA002003F0ADFA61208D
:103F400003F0AAFA002003F0A7FA792003F0A4FAFC
:103F5000002003F0A1FA882003F09EFA002003F06D
:103F60009BFA972003F098FA002003F095FAA62018
:103F700003F092FA002003F08FFAB72003F08CFAD6
:103F8000002003F089FAC22003F086FA002003F033
:103F900083FAC72003F080FA002003F07DFAD120D5
:103FA00003F07AFA002003F077FAD62003F074FACF
:103FB000002003F071FADD2003F06EFA002003F018
:103FC0006BFAF32003F068FA002003F065FAE320AF
:103FD00003F074FA052003F05FFA002003F05CFAA6
:103FE0000A2003F059FA002003F056FA1C2003F0CF
:103FF00053FA002000E0FDE203F04EFA332003F014
:104000004BFA002003F048FA442003F045FA002060
:1040100003F042FA502003F03FFA002003F03CFA8C
:10402000622003F039FA002003F036FA782003F01A
:1040300033FA002003F030FA882003F02DFA002034
:1040400003F02AFA972003F027FA002003F024FA5D
:10405000A62003F021FA002003F01EFAB72003F097
:104060001BFA002003F018FAC22003F015FA002012
:1040700003F012FAC72003F00FFA002003F00CFA45
:10408000D12003F009FA002003F006FAD52003F04E
:1040900003FA002003F000FADD2003F0FDF9002010
:1040A00003F0FAF9F32003F0F7F9002003F0F4F934
:1040B000E42003F003FA012003F0EEF9002003F0FE
:1040C000EBF9012003F0E8F9002003F0E5F9022004
:1040D00003F0E2F9002003F0DFF92A2003F0DCF915
:1040E000002003F0D9F93C2003F0D6F9002003F0BA
:1040F000D3F94B2003F0D0F9002003F0CDF95D2077
:1041000003F0CAF9002003F0C7F9742003F0C4F9E2
:10411000002003F0C1F9842003F0BEF9002003F071
:10412000BBF9932003F0B8F9002003F0B5F9A22001
:1041300003F0B2F9002003F0AFF9B32003F0ACF9BB
:10414000002003F0A9F9BE2003F0A6F9002003F037
:10415000A3F9C42003F0A0F9002003F09DF9CD20BD
:1041600003F09AF9002003F097F9D32003F094F9B3
:10417000002003F091F9DD2003F08EF9002003F018
:104180008BF9F32003F088F9002003F085F9E5208E
:1041900003F094F9002003F07FF9002003F07CF98C
:1041A000002003F079F9002003F076F9022003F0F3
:1041B00073F9002003F070F9292003F06DF9002055
:1041C00003F06AF93C2003F067F9002003F064F97A
:1041D0004B2003F061F9002003F05EF95D2003F04D
:1041E0005BF9002003F058F9742003F055F9002022
:1041F00003F052F9842003F04FF9002003F04CF94A
:10420000932003F049F9002003F046F9A22003F0BF
:1042100043F9002003F040F9B32003F03DF90020FA
:1042200003F03AF9BE2003F037F9002003F034F927
:10423000C42003F031F9002003F02EF9CD2003F063
:104240002BF9002003F028F9D32003F025F90020F2
:1042500003F022F9DC2003F01FF9002003F01CF921
:10426000F32003F019F9002003F016F9E62003F01B
:1042700025F9112003F010F9002003F00DF9342086
:1042800003F00AF9002003F007F9562003F004F9BF
:10429000002003F001F9762003F0FEF8002003F07F
:1042A000FBF8772003F0F8F8002003F0F5F866201B
:1042B00003F0F2F8002003F0EFF8882003F0ECF8A8
:1042C000002003F0E9F8992003F0E6F8002003F05D
:1042D000E3F8BB2003F0E0F8002003F0DDF89920BC
:1042E00003F0DAF8002003F0D7F8662003F0D4F8E2
:1042F000002003F0D1F8552003F0CEF8002003F0A1
:10430000CBF8552003F0C8F8002003F0C5F845208D
:1043100003F0C2F8002003F0BFF8432003F0BCF81C
:10432000002003F0B9F8442003F0B6F8002003F0B1
:10433000B3F8E72003F0C2F8322003F0ADF8002014
:1043400003F0AAF8552003F0A7F8002003F0A4F822
:10435000762003F0A1F8002003F09EF8662003F019
:104360009BF8002003F098F8672003F095F80020F0
:1043700003F092F8672003F08FF8002003F08CF828
:10438000872003F089F8002003F086F8992003F0D5
:1043900083F8002003F080F8BB2003F07DF80020B4
:1043A00003F07AF8992003F077F8002003F074F80E
:1043B000772003F071F8002003F06EF8442003F03A
:1043C0006BF8002003F068F8562003F065F8002031
:1043D00003F062F8232003F05FF8002003F05CF89C
:1043E000332003F059F8002003F056F8452003F07D
:1043F00053F8002003F050F8E82003F05FF80020A5
:1044000003F04AF8002003F047F8992003F044F83D
:10441000002003F041F8872003F03EF8002003F06D
:104420003BF8882003F038F8002003F035F87720B7
:1044300003F032F8002003F02FF8662003F02CF888
:10444000002003F029F8882003F026F8002003F06C
:1044500023F8AA2003F020F8002003F01DF8BB2069
:1044600003F01AF8002003F017F8992003F014F86D
:10447000002003F011F8662003F00EF8002003F08E
:104480000BF8552003F008F8002003F005F855203C
:1044900003F002F8002002F0FFFF442002F0FCFFCE
:1044A000002002F0F9FF442002F0F6FF002002F0A5
:1044B000F3FF552002F0F0FF002002F0EDFFE920AD
:1044C00002F0FCFFAA2002F0E7FF002002F0E4FF68
:1044D000002002F0E1FF002002F0DEFF002002F0E9
:1044E000EDFFAA2002F0D8FFCF2002F0E7FF002066
:1044F00002F0D2FF002002F0CFFF002002F0CCFF3C
:10450000002002F0C9FF002002F0C6FF002002F0E8
:10451000C3FF002002F0C0FF002002F0BDFF00201A
:1045200002F0BAFF002002F0B7FF002002F0B4FF53
:10453000002002F0B1FF002002F0AEFF002002F0E8
:10454000ABFF002002F0A8FF002002F0A5FF002032
:1045500002F0A2FFF02002F0B1FF002002F09CFF69
:10456000502002F099FF002002F096FF002002F098
:1045700093FF002002F090FFF32002F09FFF002045
:1045800002F08AFFF92002F099FF062002F084FF72
:10459000102002F081FF292002F07EFF002002F0AF
:1045A0007BFF3A2002F08AFF552002F075FF1120B0
:1045B00002F084FF642009F02BFE292002F07EFF28
:1045C000352002F07BFF002002F066FF512002F050
:1045D00075FFFF2002F060FF532002F06FFF2C20D8
:1045E00002F05AFF552002F069FF822002F054FFCA
:1045F0002C20FCE3B0427DD14FF47044552120467D
:1046000002F074FF651CAA21284602F06FFFA61C69
:104610005221304602F06AFFE71C0821384602F0BA
:1046200065FF4FF204080121404602F05FFF0D21B3
:104630004FF4304002F05AFF0D214BF2010002F01E
:1046400055FF0D214BF2020002F050FF4FF43649A6
:104650003421484602F04AFF34214BF2016002F057
:1046600045FF34214BF2026002F040FF4FF4314A23
:104670000D21504602F03AFF4BF2011B0D21584626
:1046800002F034FF0D214BF2021002F02FFF342113
:104690004FF4374002F02AFF34214BF2017002F050
:1046A00025FF34214BF2027002F020FF00214FF46D
:1046B000324002F01BFF00214BF2012002F016FFF6
:1046C00000214BF2022002F011FF24214FF4384068
:1046D00002F00CFF24214BF6010002F007FF242119
:1046E0004BF6020002F002FF01214FF43F4002F0BE
:1046F000FDFE00E0FEE30F214FF4334002F0F6FE32
:104700000F214BF2013002F0F1FE0F214BF202308B
:1047100002F0ECFE34214FF4394002F0E7FE342180
:104720004BF6011002F0E2FE34214BF6021002F0CB
:10473000DDFE08214FF4354002F0D8FE08214BF28F
:10474000015002F0D3FE08214BF2025002F0CEFEDF
:1047500003214FF4424002F0C9FE24214FF43A40B5
:1047600002F0C4FE24214BF6012002F0BFFE2421FA
:104770004BF6022002F0BAFE00214FF43C4002F05A
:10478000B5FE78214BF6014002F0B0FE00214BF659
:10479000024002F0ABFE00214FF43D4002F0A6FEC5
:1047A00078214BF6015002F0A1FE00214BF6025099
:1047B00002F09CFE00214FF43E4002F097FE64217F
:1047C0004BF6016002F092FE00214FF4514002F0DE
:1047D0008DFE33214DF2011002F088FE00214DF2D2
:1047E000021002F083FE34214DF2031002F07EFE2F
:1047F00000214DF2041002F079FE3A214DF205102D
:1048000002F074FE00214DF2061002F06FFE4A2104
:104810004DF2071002F06AFE00214DF2081002F07E
:1048200065FE5C214DF2091002F060FE00214DF2A0
:104830000A1002F05BFE81214DF20B1002F056FED1
:1048400000214DF20C1002F051FEA6214DF20D1088
:1048500002F04CFE00214DF20E1002F047FEE52161
:104860004DF20F1002F042FE01214DF2101002F045
:104870003DFE13214DF2111002F038FE01214DF2E0
:10488000121002F033FE54214DF2131002F02EFEEE
:1048900001214DF2141002F029FE82214DF2151073
:1048A00002F024FE01214DF2161002F01FFECA2173
:1048B0004DF2171002F01AFE02214DF2181002F00C
:1048C00015FE00214DF2191002F010FE02214DF2EA
:1048D0001A1002F00BFE01214DF21B1002F006FE31
:1048E00002214DF21C1002F001FE34214DF21D1088
:1048F00002F0FCFD02214DF21E1002F0F7FD6721CF
:104900004DF21F1002F0F2FD02214DF2201002F0D4
:10491000EDFD84214DF2211002F0E8FD02214DF25F
:10492000221002F0E3FDA4214DF2231002F0DEFD7F
:1049300002214DF2241002F0D9FDB7214DF22510CD
:1049400002F0D4FD02214DF2261002F0CFFDCF215E
:104950004DF2271002F0CAFD02214DF2281002F09C
:10496000C5FDDE214DF2291002F0C0FD02214DF2FD
:104970002A1002F0BBFDF2214DF22B1002F0B6FD21
:1049800002214DF22C1002F0B1FDFE214DF22D104E
:1049900002F0ACFD03214DF22E1002F0A7FD102114
:1049A0004DF22F1002F0A2FD03214DF2301002F063
:1049B0009DFD33214DF2311002F098FD03214DF29F
:1049C000321002F093FD6D214DF2331002F08EFD96
:1049D00000214FF4524002F089FD33214DF20120B5
:1049E00002F084FD00214DF2022002F07FFD34210F
:1049F0004DF2032002F07AFD00214DF2042002F076
:104A000075FD3A214DF2052002F070FD00214DF2B6
:104A1000062002F06BFD4A214DF2072002F066FDF0
:104A200000214DF2082002F061FD5C214DF20920C9
:104A300002F05CFD00214DF20A2002F057FD8121B9
:104A40004DF20B2002F052FD00214DF20C2002F03D
:104A50004DFDA6214DF20D2002F048FD00214DF242
:104A60000E2002F043FDE5214DF20F2002F03EFD45
:104A700001214DF2102002F039FD13214DF21120D9
:104A800002F034FD01214DF2122002F02FFD5421DD
:104A90004DF2132002F02AFD01214DF2142002F004
:104AA00025FD82214DF2152002F020FD01214DF25D
:104AB000162002F01BFDCA214DF2172002F016FD50
:104AC00002214DF2182002F011FD00214DF21920B3
:104AD00002F00CFD02214DF21A2002F007FD012127
:104AE0004DF21B2002F002FD02214DF21C2002F0CB
:104AF000FDFC34214DF21D2002F0F8FC02214DF2A4
:104B00001E2002F0F3FC67214DF21F2002F0EEFCA4
:104B100002214DF2202002F0E9FC84214DF22120F7
:104B200002F0E4FC02214DF2222002F0DFFCA4217D
:104B30004DF2232002F0DAFC02214DF2242002F093
:104B4000D5FCB7214DF2252002F0D0FC02214DF218
:104B5000262002F0CBFCCF214DF2272002F0C6FC2C
:104B600002214DF2282002F0C1FCDE214DF2292065
:104B700002F0BCFC02214DF22A2002F0B7FCF22127
:104B80004DF22B2002F0B2FC02214DF22C2002F05B
:104B9000ADFCFE214DF22D2002F0A8FC03214DF2C8
:104BA0002E2002F0A3FC10214DF22F2002F09EFCDB
:104BB00003214DF2302002F099FC33214DF23120D7
:104BC00002F094FC03214DF2322002F08FFC6D21A3
:104BD0004DF2332002F08AFC00214FF4534002F0E2
:104BE00085FC33214DF2013002F080FC00214DF2B2
:104BF000023002F07BFC34214DF2033002F076FCEF
:104C000000214DF2043002F071FC3A214DF20530E2
:104C100002F06CFC00214DF2063002F067FC4A21E4
:104C20004DF2073002F062FC00214DF2083002F034
:104C30005DFC5C214DF2093002F058FC00214DF280
:104C40000A3002F053FC81214DF20B3002F04EFC91
:104C500000214DF20C3002F049FCA6214DF20D303E
:104C600002F044FC00214DF20E3002F03FFCE52141
:104C70004DF20F3002F03AFC01214DF2103002F0FB
:104C800035FC13214DF2113002F030FC01214DF2C0
:104C9000123002F02BFC54214DF2133002F026FCAE
:104CA00001214DF2143002F021FC82214DF2153029
:104CB00002F01CFC01214DF2163002F017FCCA2153
:104CC0004DF2173002F012FC02214DF2183002F0C2
:104CD0000DFC00214DF2193002F008FC02214DF2CA
:104CE0001A3002F003FC01214DF21B3002F0FEFBF2
:104CF00002214DF21C3002F0F9FB34214DF21D303F
:104D000002F0F4FB02214DF21E3002F0EFFB6721AE
:104D10004DF21F3002F0EAFB02214DF2203002F08A
:104D2000E5FB84214DF2213002F0E0FB02214DF23F
:104D3000223002F0DBFBA4214DF2233002F0D6FB3F
:104D400002214DF2243002F0D1FBB7214DF2253083
:104D500002F0CCFB02214DF2263002F0C7FBCF213E
:104D60004DF2273002F0C2FB02214DF2283002F052
:104D7000BDFBDE214DF2293002F0B8FB02214DF2DD
:104D80002A3002F0B3FBF2214DF22B3002F0AEFBE1
:104D900002214DF22C3002F0A9FBFE214DF22D3004
:104DA00002F0A4FB03214DF22E3002F09FFB1021F4
:104DB0004DF22F3002F09AFB03214DF2303002F019
:104DC00095FB33214DF2313002F090FB03214DF27F
:104DD000323002F08BFB6D214DF2333002F086FB56
:104DE00000214FF4544002F081FB332100E080E3C6
:104DF0004DF2014002F07AFB00214DF2024002F038
:104E000075FB34214DF2034002F070FB00214DF29E
:104E1000044002F06BFB3A214DF2054002F066FBC4
:104E200000214DF2064002F061FB4A214DF207409D
:104E300002F05CFB00214DF2084002F057FB5C21C0
:104E40004DF2094002F052FB00214DF20A4002F0FF
:104E50004DFB81214DF20B4002F048FB00214DF249
:104E60000C4002F043FBA6214DF20D4002F03EFB48
:104E700000214DF20E4002F039FBE5214DF20F40CA
:104E800002F034FB01214DF2104002F02FFB132100
:104E90004DF2114002F02AFB01214DF2124002F0C6
:104EA00025FB54214DF2134002F020FB01214DF26D
:104EB000144002F01BFB82214DF2154002F016FB5C
:104EC00001214DF2164002F011FBCA214DF21740AC
:104ED00002F00CFB02214DF2184002F007FB00210A
:104EE0004DF2194002F002FB02214DF21A4002F08D
:104EF000FDFA00E001E301214DF21B4002F0F6FA59
:104F000002214DF21C4002F0F1FA34214DF21D4015
:104F100002F0ECFA02214DF21E4002F0E7FA67219E
:104F20004DF21F4002F0E2FA02214DF2204002F061
:104F3000DDFA84214DF2214002F0D8FA02214DF22F
:104F4000224002F0D3FAA4214DF2234002F0CEFA1F
:104F500002214DF2244002F0C9FAB7214DF225405A
:104F600002F0C4FA02214DF2264002F0BFFACF212E
:104F70004DF2274002F0BAFA02214DF2284002F029
:104F8000B5FADE214DF2294002F0B0FA02214DF2CD
:104F90002A4002F0ABFAF2214DF22B4002F0A6FAC1
:104FA00002214DF22C4002F0A1FAFE214DF22D40DB
:104FB00002F09CFA03214DF22E4002F097FA1021E4
:104FC0004DF22F4002F092FA03214DF2304002F0F0
:104FD0008DFA33214DF2314002F088FA03214DF26F
:104FE000324002F083FA6D214DF2334002F07EFA36
:104FF00000214FF4554002F079FA33214DF201506F
:1050000002F074FA00214DF2025002F06FFA3421DE
:105010004DF2035002F06AFA00214DF2045002F002
:1050200065FA3A214DF2055002F060FA00214DF286
:10503000065002F05BFA4A214DF2075002F056FA90
:1050400000214DF2085002F051FA5C214DF2095056
:1050500002F04CFA00214DF20A5002F047FA812189
:105060004DF20B5002F042FA00214DF20C5002F0CA
:105070003DFAA6214DF20D5002F038FA00214DF212
:105080000E5002F033FAE5214DF20F5002F02EFAE5
:1050900001214DF2105002F029FA13214DF2115066
:1050A00002F024FA01214DF2125002F01FFA5421AD
:1050B0004DF2135002F01AFA01214DF2145002F091
:1050C00015FA82214DF2155002F010FA01214DF22D
:1050D000165002F00BFACA214DF2175002F006FAF0
:1050E00002214DF2185002F001FA00214DF2195040
:1050F00002F0FCF902214DF21A5002F0F7F90121F9
:105100004DF21B5002F0F2F902214DF21C5002F058
:10511000EDF934214DF21D5002F0E8F902214DF273
:105120001E5002F0E3F967214DF21F5002F0DEF944
:1051300002214DF2205002F0D9F984214DF2215084
:1051400002F0D4F902214DF2225002F0CFF9A4214D
:105150004DF2235002F0CAF902214DF2245002F020
:10516000C5F9B7214DF2255002F0C0F902214DF2E8
:10517000265002F0BBF9CF214DF2275002F0B6F9CC
:1051800002214DF2285002F0B1F9DE214DF22950F2
:1051900002F0ACF902214DF22A5002F0A7F9F221F7
:1051A0004DF22B5002F0A2F902214DF22C5002F0E8
:1051B0009DF9FE214DF22D5002F098F903214DF298
:1051C0002E5002F093F910214DF22F5002F08EF97B
:1051D00003214DF2305002F089F933214DF2315064
:1051E00002F084F903214DF2325002F07FF96D2173
:1051F0004DF2335002F07AF900214FF4564002F09C
:1052000075F933214DF2016002F070F900214DF281
:10521000026002F06BF934214DF2036002F066F98E
:1052200000214DF2046002F061F93A214DF205606F
:1052300002F05CF900214DF2066002F057F94A21B4
:105240004DF2076002F052F900214DF2086002F0C1
:105250004DF95C214DF2096002F048F900214DF250
:105260000A6002F043F981214DF20B6002F03EF931
:1052700000214DF20C6002F039F9A6214DF20D60CB
:1052800002F034F900214DF20E6002F02FF9E52111
:105290004DF20F6002F02AF901214DF2106002F088
:1052A00025F913214DF2116002F020F901214DF290
:1052B000126002F01BF954214DF2136002F016F94E
:1052C00001214DF2146002F011F982214DF21560B6
:1052D00002F00CF901214DF2166002F007F9CA2123
:1052E0004DF2176002F002F902214DF2186002F04F
:1052F000FDF800214DF2196002F0F8F802214DF29C
:105300001A6002F0F3F801214DF21B6002F0EEF892
:1053100002214DF21C6002F0E9F834214DF21D60CB
:1053200002F0E4F802214DF21E6002F0DFF867217E
:105330004DF21F6002F0DAF802214DF2206002F017
:10534000D5F884214DF2216002F0D0F802214DF20F
:10535000226002F0CBF8A4214DF2236002F0C6F8DF
:1053600002214DF2246002F0C1F8B7214DF2256010
:1053700002F0BCF802214DF2266002F0B7F8CF210E
:105380004DF2276002F0B2F802214DF2286002F0DF
:10539000ADF8DE214DF2296002F0A8F802214DF2AD
:1053A0002A6002F0A3F8F2214DF22B6002F09EF881
:1053B00002214DF22C6002F099F8FE214DF22D6091
:1053C00002F094F803214DF22E6002F08FF81021C4
:1053D0004DF22F6002F08AF803214DF2306002F0A6
:1053E00085F833214DF2316002F080F803214DF24F
:1053F000326002F07BF86D214DF2336002F076F8F6
:105400005521204602F072F8AA21284602F06EF8D3
:105410005221304602F06AF80821384602F066F858
:105420000021404602F062F8CC21504602F05EF8BE
:105430000021584602F05AF80521484602F056F875
:1054400070214FF4374002F051F870214BF2017097
:1054500002F04CF801214FF4384002F047F80321E4
:105460004BF6010002F042F803214BF6020002F075
:105470003DF803214BF6030002F038F802214FF407
:105480003C4002F033F800214BF6014002F02EF8C8
:1054900000214BF6024002F029F8D0214FF4494098
:1054A00002F024F802214CF6011002F01FF85021FE
:1054B0004CF6021002F01AF850214CF6031002F0DC
:1054C00015F850214CF6041002F010F800214FF4AA
:1054D000545002F00BF855214FF4685002F006F8D2
:1054E0004FF4885001F0EAFF782008F0B3FE4FF443
:1054F000245001F0E3FF01F02CBAA0F513414FF462
:10550000E06740F2022A40F23F154FF4274925395F
:105510002BD0FE1D4FF40178C91E7DD04FF4887B3F
:105520004FF41C59083178D0113977D0A0F5A84133
:10553000083974D0A0F5A8514FF4407B05396FD0DD
:10554000B1F520416DD0B1F580516BD0A0F5094186
:10555000893968D0A0F58A4131397DD0091F7CD0C6
:10556000A0F5C851633979D0C5E747F6F001E520C9
:1055700001F0BCFF2146012001F0B8FF39460220AE
:1055800001F0B4FF41F23001032001F0AFFF002130
:10559000042001F0ABFF5146082001F0A7FF0021D5
:1055A000092001F0A3FF00210A2001F09FFF002144
:1055B0000C2001F09BFF00210D2001F097FF00213E
:1055C0000F2001F093FF0021102001F08FFF072131
:1055D000112001F08BFF0021122001F087FF002134
:1055E000132001F083FF0021072001F07FFF41F22B
:1055F0009061102001F07AFF40F22721112001F084
:1056000075FF9D21122001F071FF4FF4C851132046
:1056100001F06CFF252107E07FE028E1CBE19DE26E
:1056200037E3FDE3FDE3FDE3292001F05FFF0D21FA
:105630002B2001F05BFF0721302001F057FF40F2E3
:105640000331312001F052FF0321322001F04EFFDF
:1056500040F20621352002E0FEE3FEE3FEE301F026
:1056600045FF0821362001F041FF40F20641372076
:1056700001F03CFF4FF44171382001F037FF072162
:10568000392001F033FF40F202613C2001F02EFF8F
:1056900008213D2001F02AFF0021502001F026FFC3
:1056A000EF21512001F022FF0021522001F01EFFC6
:1056B0002946532001F01AFF4946602001F016FFE9
:1056C0000121612001F012FF00216A2001F00EFF8C
:1056D0000021802001F00AFF0021812001F006FF57
:1056E0000021822001F002FF0021832001F0FEFE54
:1056F0000021842001F0FAFE0021852001F0F6FE51
:105700001021902001F0F2FE4FF4C061922001F0D0
:10571000EDFE40F233110720FEE341F28F01EC2051
:1057200001F0E4FE41F23421EF2001F0DFFE2146DA
:10573000012001F0DBFE3946022001F0D7FE41F2E4
:105740003001032001F0D2FE0021042001F0CEFE42
:105750005146082001F0CAFE0021092001F0C6FED2
:1057600000210A2001F0C2FE01210C2001F0BEFE42
:1057700000210D2001F0BAFE00210F2001F0B6FE3D
:105780000021102001F0B2FE0721112001F0AEFE31
:105790000021122001F0AAFE0021132001F0A6FE34
:1057A0000121072001F0A2FE322008F031FD41F274
:1057B0009041102001F09AFE40F22721112001F0C3
:1057C00095FE322008F024FD8A21122001F08EFE81
:1057D000322008F01DFD4FF4D051132001F086FE59
:1057E0000621292001F082FE0D212B2001F07EFEF2
:1057F000322008F00DFD0021202001F077FE00216D
:10580000212001F073FE322008F002FD002130203B
:1058100001F06CFE40F20461312001F067FE40F2BD
:105820000531322001F062FE0021352001F05EFEDC
:1058300040F60941362001F059FE4146372001F07B
:1058400055FE40F20131382001F050FE314639203A
:1058500001F04CFE00213C2001F048FE40F60A21F8
:105860003D2001F043FE322008F0D2FC3AE1002155
:10587000084601F03BFE2146012001F037FE394683
:10588000022001F033FE41F23001032001F02EFE30
:105890000021042001F02AFE5146082001F026FED6
:1058A0000021092001F022FE00210A2001F01EFE45
:1058B00001210C2001F01AFE00210D2001F016FE3E
:1058C00000210F2001F012FE322008F0A1FC40F26E
:1058D0000111072001F00AFE322008F099FC4FF474
:1058E0008651102001F002FE0721112001F0FEFD7B
:1058F0005C465946122001F0F9FD4FF43061132047
:1059000001F0F4FD0021292001F0F0FD44F2100126
:105910002B2001F0EBFD0021502001F0E7FDEF21ED
:10592000512001F0E3FD0021522001F0DFFD294666
:10593000532001F0DBFD4946602001F0D7FD012135
:10594000612001F0D3FD00216A2001F0CFFD00218C
:10595000802001F0CBFD0021812001F0C7FD002156
:10596000822001F0C3FD0021832001F0BFFD002152
:10597000842001F0BBFD0021852001F0B7FD10213E
:10598000902001F0B3FD0021922001F0AFFD012134
:10599000932001F0ABFD2146952001F0A7FD0021E9
:1059A000972001F0A3FD0021982001F09FFD40F217
:1059B0007311072079E341F21401E72001F096FD0D
:1059C0002146012001F092FD4FF40071022001F008
:1059D0008DFD41F23801032001F088FD5146082079
:1059E00001F084FD0021092001F080FD00210A2042
:1059F00001F07CFD00210C2001F078FD00210D203C
:105A000001F074FD00210F2001F070FD0021102035
:105A100001F06CFD0721112001F068FD002112202A
:105A200001F064FD0021132001F060FDC82008F0A2
:105A3000EFFB41F29061102001F058FD40F2272168
:105A4000112001F053FD322008F0E2FB0C2112205E
:105A500001F04CFD322008F0DBFB4FF40061132015
:105A600001F044FD1121292001F040FD0B212B20E4
:105A700001F03CFD322008F0CBFB0021202001F09A
:105A800035FD2946212001F031FD0021302001F0B3
:105A90002DFD4FF483742146312001F027FD0021B4
:105AA000322001F023FD4146352001F01FFD41F277
:105AB0000A61362001F01AFD3146372001F016FD4B
:105AC0002146382001F012FD3146392001F00EFD4B
:105AD00040F202413C2001F009FD40F60F413D201B
